{
  "_format": "hh-sol-artifact-1",
  "contractName": "Administrator",
  "sourceName": "contracts/Administrator.sol",
  "abi": [
    {
      "anonymous": false,
      "inputs": [
        {
          "indexed": true,
          "internalType": "address",
          "name": "previousOwner",
          "type": "address"
        },
        {
          "indexed": true,
          "internalType": "address",
          "name": "newOwner",
          "type": "address"
        }
      ],
      "name": "OwnershipTransferred",
      "type": "event"
    },
    {
      "inputs": [],
      "name": "activateContract",
      "outputs": [],
      "stateMutability": "nonpayable",
      "type": "function"
    },
    {
      "inputs": [],
      "name": "activateWhitelist",
      "outputs": [],
      "stateMutability": "nonpayable",
      "type": "function"
    },
    {
      "inputs": [
        {
          "internalType": "address",
          "name": "adminAddress",
          "type": "address"
        }
      ],
      "name": "addAdmin",
      "outputs": [],
      "stateMutability": "nonpayable",
      "type": "function"
    },
    {
      "inputs": [],
      "name": "owner",
      "outputs": [
        {
          "internalType": "address",
          "name": "",
          "type": "address"
        }
      ],
      "stateMutability": "view",
      "type": "function"
    },
    {
      "inputs": [],
      "name": "pauseContract",
      "outputs": [],
      "stateMutability": "nonpayable",
      "type": "function"
    },
    {
      "inputs": [
        {
          "internalType": "address",
          "name": "adminAddress",
          "type": "address"
        }
      ],
      "name": "removeAdmin",
      "outputs": [],
      "stateMutability": "nonpayable",
      "type": "function"
    },
    {
      "inputs": [],
      "name": "renounceOwnership",
      "outputs": [],
      "stateMutability": "nonpayable",
      "type": "function"
    },
    {
      "inputs": [],
      "name": "stopWhitelist",
      "outputs": [],
      "stateMutability": "nonpayable",
      "type": "function"
    },
    {
      "inputs": [
        {
          "internalType": "address",
          "name": "newOwner",
          "type": "address"
        }
      ],
      "name": "transferOwnership",
      "outputs": [],
      "stateMutability": "nonpayable",
      "type": "function"
    }
  ],
  "bytecode": "0x60806040526001600260006101000a81548160ff0219169083151502179055506001600260016101000a81548160ff02191690831515021790555034801561004657600080fd5b5061006361005861006860201b60201c565b61007060201b60201c565b610134565b600033905090565b60008060009054906101000a900473ffffffffffffffffffffffffffffffffffffffff169050816000806101000a81548173ffffffffffffffffffffffffffffffffffffffff021916908373ffffffffffffffffffffffffffffffffffffffff1602179055508173ffffffffffffffffffffffffffffffffffffffff168173ffffffffffffffffffffffffffffffffffffffff167f8be0079c531659141344cd1fd0a4f28419497f9722a3daafe3b4186f6b6457e060405160405180910390a35050565b610abe806101436000396000f3fe608060405234801561001057600080fd5b50600436106100935760003560e01c8063715018a611610066578063715018a6146100e457806389e877a3146100ee5780638da5cb5b146100f85780638fda356d14610116578063f2fde38b1461012057610093565b80631785f53c14610098578063333cd5c1146100b4578063439766ce146100be57806370480275146100c8575b600080fd5b6100b260048036038101906100ad9190610871565b61013c565b005b6100bc610213565b005b6100c66102f9565b005b6100e260048036038101906100dd9190610871565b610392565b005b6100ec610468565b005b6100f66104f0565b005b6101006105d6565b60405161010d9190610912565b60405180910390f35b61011e6105ff565b005b61013a60048036038101906101359190610871565b610698565b005b610144610790565b73ffffffffffffffffffffffffffffffffffffffff166101626105d6565b73ffffffffffffffffffffffffffffffffffffffff16146101b8576040517f08c379a00000000000000000000000000000000000000000000000000000000081526004016101af9061094d565b60405180910390fd5b6000600160008373ffffffffffffffffffffffffffffffffffffffff1673ffffffffffffffffffffffffffffffffffffffff16815260200190815260200160002060006101000a81548160ff02191690831515021790555050565b61021b6105d6565b73ffffffffffffffffffffffffffffffffffffffff163373ffffffffffffffffffffffffffffffffffffffff16148061029d5750600160003373ffffffffffffffffffffffffffffffffffffffff1673ffffffffffffffffffffffffffffffffffffffff16815260200190815260200160002060009054906101000a900460ff165b6102dc576040517f08c379a00000000000000000000000000000000000000000000000000000000081526004016102d39061096d565b60405180910390fd5b6000600260016101000a81548160ff021916908315150217905550565b610301610790565b73ffffffffffffffffffffffffffffffffffffffff1661031f6105d6565b73ffffffffffffffffffffffffffffffffffffffff1614610375576040517f08c379a000000000000000000000000000000000000000000000000000000000815260040161036c9061094d565b60405180910390fd5b6000600260006101000a81548160ff021916908315150217905550565b61039a610790565b73ffffffffffffffffffffffffffffffffffffffff166103b86105d6565b73ffffffffffffffffffffffffffffffffffffffff161461040e576040517f08c379a00000000000000000000000000000000000000000000000000000000081526004016104059061094d565b60405180910390fd5b60018060008373ffffffffffffffffffffffffffffffffffffffff1673ffffffffffffffffffffffffffffffffffffffff16815260200190815260200160002060006101000a81548160ff02191690831515021790555050565b610470610790565b73ffffffffffffffffffffffffffffffffffffffff1661048e6105d6565b73ffffffffffffffffffffffffffffffffffffffff16146104e4576040517f08c379a00000000000000000000000000000000000000000000000000000000081526004016104db9061094d565b60405180910390fd5b6104ee6000610798565b565b6104f86105d6565b73ffffffffffffffffffffffffffffffffffffffff163373ffffffffffffffffffffffffffffffffffffffff16148061057a5750600160003373ffffffffffffffffffffffffffffffffffffffff1673ffffffffffffffffffffffffffffffffffffffff16815260200190815260200160002060009054906101000a900460ff165b6105b9576040517f08c379a00000000000000000000000000000000000000000000000000000000081526004016105b09061096d565b60405180910390fd5b6001600260016101000a81548160ff021916908315150217905550565b60008060009054906101000a900473ffffffffffffffffffffffffffffffffffffffff16905090565b610607610790565b73ffffffffffffffffffffffffffffffffffffffff166106256105d6565b73ffffffffffffffffffffffffffffffffffffffff161461067b576040517f08c379a00000000000000000000000000000000000000000000000000000000081526004016106729061094d565b60405180910390fd5b6000600260006101000a81548160ff021916908315150217905550565b6106a0610790565b73ffffffffffffffffffffffffffffffffffffffff166106be6105d6565b73ffffffffffffffffffffffffffffffffffffffff1614610714576040517f08c379a000000000000000000000000000000000000000000000000000000000815260040161070b9061094d565b60405180910390fd5b600073ffffffffffffffffffffffffffffffffffffffff168173ffffffffffffffffffffffffffffffffffffffff161415610784576040517f08c379a000000000000000000000000000000000000000000000000000000000815260040161077b9061092d565b60405180910390fd5b61078d81610798565b50565b600033905090565b60008060009054906101000a900473ffffffffffffffffffffffffffffffffffffffff169050816000806101000a81548173ffffffffffffffffffffffffffffffffffffffff021916908373ffffffffffffffffffffffffffffffffffffffff1602179055508173ffffffffffffffffffffffffffffffffffffffff168173ffffffffffffffffffffffffffffffffffffffff167f8be0079c531659141344cd1fd0a4f28419497f9722a3daafe3b4186f6b6457e060405160405180910390a35050565b60008135905061086b81610a71565b92915050565b60006020828403121561088357600080fd5b60006108918482850161085c565b91505092915050565b6108a38161099e565b82525050565b60006108b660268361098d565b91506108c1826109d0565b604082019050919050565b60006108d960208361098d565b91506108e482610a1f565b602082019050919050565b60006108fc60138361098d565b915061090782610a48565b602082019050919050565b6000602082019050610927600083018461089a565b92915050565b60006020820190508181036000830152610946816108a9565b9050919050565b60006020820190508181036000830152610966816108cc565b9050919050565b60006020820190508181036000830152610986816108ef565b9050919050565b600082825260208201905092915050565b60006109a9826109b0565b9050919050565b600073ffffffffffffffffffffffffffffffffffffffff82169050919050565b7f4f776e61626c653a206e6577206f776e657220697320746865207a65726f206160008201527f6464726573730000000000000000000000000000000000000000000000000000602082015250565b7f4f776e61626c653a2063616c6c6572206973206e6f7420746865206f776e6572600082015250565b7f53656e646572206973206e6f742061646d696e00000000000000000000000000600082015250565b610a7a8161099e565b8114610a8557600080fd5b5056fea26469706673582212200538105c22cf7238f668396f68e8ad715771c57b40eccb470a1530edd2de09aa64736f6c63430008040033",
  "linkReferences": {},
  "deployedLinkReferences": {}
}