{
  "_format": "hh-sol-artifact-1",
  "contractName": "NFTERC721A",
  "sourceName": "contracts/NFTERC721A.sol",
  "abi": [
    {
      "inputs": [
        {
          "internalType": "address[]",
          "name": "_team",
          "type": "address[]"
        },
        {
          "internalType": "uint256[]",
          "name": "_teamShares",
          "type": "uint256[]"
        },
        {
          "internalType": "bytes32",
          "name": "_merkleRoot",
          "type": "bytes32"
        },
        {
          "internalType": "string",
          "name": "_baseURI",
          "type": "string"
        }
      ],
      "stateMutability": "nonpayable",
      "type": "constructor"
    },
    {
      "inputs": [],
      "name": "ApprovalCallerNotOwnerNorApproved",
      "type": "error"
    },
    {
      "inputs": [],
      "name": "ApprovalQueryForNonexistentToken",
      "type": "error"
    },
    {
      "inputs": [],
      "name": "ApprovalToCurrentOwner",
      "type": "error"
    },
    {
      "inputs": [],
      "name": "ApproveToCaller",
      "type": "error"
    },
    {
      "inputs": [],
      "name": "BalanceQueryForZeroAddress",
      "type": "error"
    },
    {
      "inputs": [],
      "name": "MintToZeroAddress",
      "type": "error"
    },
    {
      "inputs": [],
      "name": "MintZeroQuantity",
      "type": "error"
    },
    {
      "inputs": [],
      "name": "OwnerQueryForNonexistentToken",
      "type": "error"
    },
    {
      "inputs": [],
      "name": "TransferCallerNotOwnerNorApproved",
      "type": "error"
    },
    {
      "inputs": [],
      "name": "TransferFromIncorrectOwner",
      "type": "error"
    },
    {
      "inputs": [],
      "name": "TransferToNonERC721ReceiverImplementer",
      "type": "error"
    },
    {
      "inputs": [],
      "name": "TransferToZeroAddress",
      "type": "error"
    },
    {
      "anonymous": false,
      "inputs": [
        {
          "indexed": true,
          "internalType": "address",
          "name": "owner",
          "type": "address"
        },
        {
          "indexed": true,
          "internalType": "address",
          "name": "approved",
          "type": "address"
        },
        {
          "indexed": true,
          "internalType": "uint256",
          "name": "tokenId",
          "type": "uint256"
        }
      ],
      "name": "Approval",
      "type": "event"
    },
    {
      "anonymous": false,
      "inputs": [
        {
          "indexed": true,
          "internalType": "address",
          "name": "owner",
          "type": "address"
        },
        {
          "indexed": true,
          "internalType": "address",
          "name": "operator",
          "type": "address"
        },
        {
          "indexed": false,
          "internalType": "bool",
          "name": "approved",
          "type": "bool"
        }
      ],
      "name": "ApprovalForAll",
      "type": "event"
    },
    {
      "anonymous": false,
      "inputs": [
        {
          "indexed": true,
          "internalType": "contract IERC20",
          "name": "token",
          "type": "address"
        },
        {
          "indexed": false,
          "internalType": "address",
          "name": "to",
          "type": "address"
        },
        {
          "indexed": false,
          "internalType": "uint256",
          "name": "amount",
          "type": "uint256"
        }
      ],
      "name": "ERC20PaymentReleased",
      "type": "event"
    },
    {
      "anonymous": false,
      "inputs": [
        {
          "indexed": true,
          "internalType": "address",
          "name": "previousOwner",
          "type": "address"
        },
        {
          "indexed": true,
          "internalType": "address",
          "name": "newOwner",
          "type": "address"
        }
      ],
      "name": "OwnershipTransferred",
      "type": "event"
    },
    {
      "anonymous": false,
      "inputs": [
        {
          "indexed": false,
          "internalType": "address",
          "name": "account",
          "type": "address"
        },
        {
          "indexed": false,
          "internalType": "uint256",
          "name": "shares",
          "type": "uint256"
        }
      ],
      "name": "PayeeAdded",
      "type": "event"
    },
    {
      "anonymous": false,
      "inputs": [
        {
          "indexed": false,
          "internalType": "address",
          "name": "from",
          "type": "address"
        },
        {
          "indexed": false,
          "internalType": "uint256",
          "name": "amount",
          "type": "uint256"
        }
      ],
      "name": "PaymentReceived",
      "type": "event"
    },
    {
      "anonymous": false,
      "inputs": [
        {
          "indexed": false,
          "internalType": "address",
          "name": "to",
          "type": "address"
        },
        {
          "indexed": false,
          "internalType": "uint256",
          "name": "amount",
          "type": "uint256"
        }
      ],
      "name": "PaymentReleased",
      "type": "event"
    },
    {
      "anonymous": false,
      "inputs": [
        {
          "indexed": true,
          "internalType": "address",
          "name": "from",
          "type": "address"
        },
        {
          "indexed": true,
          "internalType": "address",
          "name": "to",
          "type": "address"
        },
        {
          "indexed": true,
          "internalType": "uint256",
          "name": "tokenId",
          "type": "uint256"
        }
      ],
      "name": "Transfer",
      "type": "event"
    },
    {
      "inputs": [
        {
          "internalType": "address",
          "name": "",
          "type": "address"
        }
      ],
      "name": "amountNFTSperWalletWhitelistSale",
      "outputs": [
        {
          "internalType": "uint256",
          "name": "",
          "type": "uint256"
        }
      ],
      "stateMutability": "view",
      "type": "function"
    },
    {
      "inputs": [
        {
          "internalType": "address",
          "name": "to",
          "type": "address"
        },
        {
          "internalType": "uint256",
          "name": "tokenId",
          "type": "uint256"
        }
      ],
      "name": "approve",
      "outputs": [],
      "stateMutability": "nonpayable",
      "type": "function"
    },
    {
      "inputs": [
        {
          "internalType": "address",
          "name": "owner",
          "type": "address"
        }
      ],
      "name": "balanceOf",
      "outputs": [
        {
          "internalType": "uint256",
          "name": "",
          "type": "uint256"
        }
      ],
      "stateMutability": "view",
      "type": "function"
    },
    {
      "inputs": [],
      "name": "baseURI",
      "outputs": [
        {
          "internalType": "string",
          "name": "",
          "type": "string"
        }
      ],
      "stateMutability": "view",
      "type": "function"
    },
    {
      "inputs": [
        {
          "internalType": "uint256",
          "name": "tokenId",
          "type": "uint256"
        }
      ],
      "name": "getApproved",
      "outputs": [
        {
          "internalType": "address",
          "name": "",
          "type": "address"
        }
      ],
      "stateMutability": "view",
      "type": "function"
    },
    {
      "inputs": [],
      "name": "getPublicSalePrice",
      "outputs": [
        {
          "internalType": "uint256",
          "name": "",
          "type": "uint256"
        }
      ],
      "stateMutability": "view",
      "type": "function"
    },
    {
      "inputs": [],
      "name": "getWlSalePrice",
      "outputs": [
        {
          "internalType": "uint256",
          "name": "",
          "type": "uint256"
        }
      ],
      "stateMutability": "view",
      "type": "function"
    },
    {
      "inputs": [
        {
          "internalType": "address",
          "name": "_to",
          "type": "address"
        },
        {
          "internalType": "uint256",
          "name": "_quantity",
          "type": "uint256"
        }
      ],
      "name": "gift",
      "outputs": [],
      "stateMutability": "nonpayable",
      "type": "function"
    },
    {
      "inputs": [
        {
          "internalType": "address",
          "name": "owner",
          "type": "address"
        },
        {
          "internalType": "address",
          "name": "operator",
          "type": "address"
        }
      ],
      "name": "isApprovedForAll",
      "outputs": [
        {
          "internalType": "bool",
          "name": "",
          "type": "bool"
        }
      ],
      "stateMutability": "view",
      "type": "function"
    },
    {
      "inputs": [],
      "name": "merkleRoot",
      "outputs": [
        {
          "internalType": "bytes32",
          "name": "",
          "type": "bytes32"
        }
      ],
      "stateMutability": "view",
      "type": "function"
    },
    {
      "inputs": [],
      "name": "name",
      "outputs": [
        {
          "internalType": "string",
          "name": "",
          "type": "string"
        }
      ],
      "stateMutability": "view",
      "type": "function"
    },
    {
      "inputs": [],
      "name": "owner",
      "outputs": [
        {
          "internalType": "address",
          "name": "",
          "type": "address"
        }
      ],
      "stateMutability": "view",
      "type": "function"
    },
    {
      "inputs": [
        {
          "internalType": "uint256",
          "name": "tokenId",
          "type": "uint256"
        }
      ],
      "name": "ownerOf",
      "outputs": [
        {
          "internalType": "address",
          "name": "",
          "type": "address"
        }
      ],
      "stateMutability": "view",
      "type": "function"
    },
    {
      "inputs": [
        {
          "internalType": "uint256",
          "name": "index",
          "type": "uint256"
        }
      ],
      "name": "payee",
      "outputs": [
        {
          "internalType": "address",
          "name": "",
          "type": "address"
        }
      ],
      "stateMutability": "view",
      "type": "function"
    },
    {
      "inputs": [
        {
          "internalType": "address",
          "name": "_account",
          "type": "address"
        },
        {
          "internalType": "uint256",
          "name": "_quantity",
          "type": "uint256"
        }
      ],
      "name": "publicSaleMint",
      "outputs": [],
      "stateMutability": "payable",
      "type": "function"
    },
    {
      "inputs": [],
      "name": "publicSalePrice",
      "outputs": [
        {
          "internalType": "uint256",
          "name": "",
          "type": "uint256"
        }
      ],
      "stateMutability": "view",
      "type": "function"
    },
    {
      "inputs": [
        {
          "internalType": "address payable",
          "name": "account",
          "type": "address"
        }
      ],
      "name": "release",
      "outputs": [],
      "stateMutability": "nonpayable",
      "type": "function"
    },
    {
      "inputs": [
        {
          "internalType": "contract IERC20",
          "name": "token",
          "type": "address"
        },
        {
          "internalType": "address",
          "name": "account",
          "type": "address"
        }
      ],
      "name": "release",
      "outputs": [],
      "stateMutability": "nonpayable",
      "type": "function"
    },
    {
      "inputs": [
        {
          "internalType": "contract IERC20",
          "name": "token",
          "type": "address"
        },
        {
          "internalType": "address",
          "name": "account",
          "type": "address"
        }
      ],
      "name": "released",
      "outputs": [
        {
          "internalType": "uint256",
          "name": "",
          "type": "uint256"
        }
      ],
      "stateMutability": "view",
      "type": "function"
    },
    {
      "inputs": [
        {
          "internalType": "address",
          "name": "account",
          "type": "address"
        }
      ],
      "name": "released",
      "outputs": [
        {
          "internalType": "uint256",
          "name": "",
          "type": "uint256"
        }
      ],
      "stateMutability": "view",
      "type": "function"
    },
    {
      "inputs": [],
      "name": "renounceOwnership",
      "outputs": [],
      "stateMutability": "nonpayable",
      "type": "function"
    },
    {
      "inputs": [
        {
          "internalType": "address",
          "name": "from",
          "type": "address"
        },
        {
          "internalType": "address",
          "name": "to",
          "type": "address"
        },
        {
          "internalType": "uint256",
          "name": "tokenId",
          "type": "uint256"
        }
      ],
      "name": "safeTransferFrom",
      "outputs": [],
      "stateMutability": "nonpayable",
      "type": "function"
    },
    {
      "inputs": [
        {
          "internalType": "address",
          "name": "from",
          "type": "address"
        },
        {
          "internalType": "address",
          "name": "to",
          "type": "address"
        },
        {
          "internalType": "uint256",
          "name": "tokenId",
          "type": "uint256"
        },
        {
          "internalType": "bytes",
          "name": "_data",
          "type": "bytes"
        }
      ],
      "name": "safeTransferFrom",
      "outputs": [],
      "stateMutability": "nonpayable",
      "type": "function"
    },
    {
      "inputs": [],
      "name": "saleStartTime",
      "outputs": [
        {
          "internalType": "uint256",
          "name": "",
          "type": "uint256"
        }
      ],
      "stateMutability": "view",
      "type": "function"
    },
    {
      "inputs": [],
      "name": "sellingStep",
      "outputs": [
        {
          "internalType": "enum NFTERC721A.Step",
          "name": "",
          "type": "uint8"
        }
      ],
      "stateMutability": "view",
      "type": "function"
    },
    {
      "inputs": [
        {
          "internalType": "address",
          "name": "operator",
          "type": "address"
        },
        {
          "internalType": "bool",
          "name": "approved",
          "type": "bool"
        }
      ],
      "name": "setApprovalForAll",
      "outputs": [],
      "stateMutability": "nonpayable",
      "type": "function"
    },
    {
      "inputs": [
        {
          "internalType": "bytes32",
          "name": "_merkleRoot",
          "type": "bytes32"
        }
      ],
      "name": "setMerkleRoot",
      "outputs": [],
      "stateMutability": "nonpayable",
      "type": "function"
    },
    {
      "inputs": [
        {
          "internalType": "uint256",
          "name": "_saleStartTime",
          "type": "uint256"
        }
      ],
      "name": "setSaleStartTime",
      "outputs": [],
      "stateMutability": "nonpayable",
      "type": "function"
    },
    {
      "inputs": [
        {
          "internalType": "uint256",
          "name": "_step",
          "type": "uint256"
        }
      ],
      "name": "setStep",
      "outputs": [],
      "stateMutability": "nonpayable",
      "type": "function"
    },
    {
      "inputs": [
        {
          "internalType": "address",
          "name": "account",
          "type": "address"
        }
      ],
      "name": "shares",
      "outputs": [
        {
          "internalType": "uint256",
          "name": "",
          "type": "uint256"
        }
      ],
      "stateMutability": "view",
      "type": "function"
    },
    {
      "inputs": [
        {
          "internalType": "bytes4",
          "name": "interfaceId",
          "type": "bytes4"
        }
      ],
      "name": "supportsInterface",
      "outputs": [
        {
          "internalType": "bool",
          "name": "",
          "type": "bool"
        }
      ],
      "stateMutability": "view",
      "type": "function"
    },
    {
      "inputs": [],
      "name": "symbol",
      "outputs": [
        {
          "internalType": "string",
          "name": "",
          "type": "string"
        }
      ],
      "stateMutability": "view",
      "type": "function"
    },
    {
      "inputs": [
        {
          "internalType": "uint256",
          "name": "_tokenId",
          "type": "uint256"
        }
      ],
      "name": "tokenURI",
      "outputs": [
        {
          "internalType": "string",
          "name": "",
          "type": "string"
        }
      ],
      "stateMutability": "view",
      "type": "function"
    },
    {
      "inputs": [
        {
          "internalType": "contract IERC20",
          "name": "token",
          "type": "address"
        }
      ],
      "name": "totalReleased",
      "outputs": [
        {
          "internalType": "uint256",
          "name": "",
          "type": "uint256"
        }
      ],
      "stateMutability": "view",
      "type": "function"
    },
    {
      "inputs": [],
      "name": "totalReleased",
      "outputs": [
        {
          "internalType": "uint256",
          "name": "",
          "type": "uint256"
        }
      ],
      "stateMutability": "view",
      "type": "function"
    },
    {
      "inputs": [],
      "name": "totalShares",
      "outputs": [
        {
          "internalType": "uint256",
          "name": "",
          "type": "uint256"
        }
      ],
      "stateMutability": "view",
      "type": "function"
    },
    {
      "inputs": [],
      "name": "totalSupply",
      "outputs": [
        {
          "internalType": "uint256",
          "name": "",
          "type": "uint256"
        }
      ],
      "stateMutability": "view",
      "type": "function"
    },
    {
      "inputs": [
        {
          "internalType": "address",
          "name": "from",
          "type": "address"
        },
        {
          "internalType": "address",
          "name": "to",
          "type": "address"
        },
        {
          "internalType": "uint256",
          "name": "tokenId",
          "type": "uint256"
        }
      ],
      "name": "transferFrom",
      "outputs": [],
      "stateMutability": "nonpayable",
      "type": "function"
    },
    {
      "inputs": [
        {
          "internalType": "address",
          "name": "newOwner",
          "type": "address"
        }
      ],
      "name": "transferOwnership",
      "outputs": [],
      "stateMutability": "nonpayable",
      "type": "function"
    },
    {
      "inputs": [
        {
          "internalType": "address",
          "name": "_account",
          "type": "address"
        },
        {
          "internalType": "uint256",
          "name": "_quantity",
          "type": "uint256"
        },
        {
          "internalType": "bytes32[]",
          "name": "_proof",
          "type": "bytes32[]"
        }
      ],
      "name": "whitelistMint",
      "outputs": [],
      "stateMutability": "payable",
      "type": "function"
    },
    {
      "inputs": [],
      "name": "wlSalePrice",
      "outputs": [
        {
          "internalType": "uint256",
          "name": "",
          "type": "uint256"
        }
      ],
      "stateMutability": "view",
      "type": "function"
    },
    {
      "stateMutability": "payable",
      "type": "receive"
    }
  ],
  "bytecode": "0x608060405265b5e620f48000601255660110d9316ec0006013556362a70aa06015553480156200002e57600080fd5b506040516200636b3803806200636b83398181016040528101906200005491906200085c565b83836040518060400160405280601c81526020017f556c74696d61746520536f6c616e61204368616d70696f6e73686970000000008152506040518060400160405280600381526020017f5553430000000000000000000000000000000000000000000000000000000000815250620000e2620000d6620002a660201b60201c565b620002ae60201b60201c565b8160039080519060200190620000fa929190620005b1565b50806004908051906020019062000113929190620005b1565b50620001246200037260201b60201c565b6001819055505050805182511462000173576040517f08c379a00000000000000000000000000000000000000000000000000000000081526004016200016a9062000a47565b60405180910390fd5b6000825111620001ba576040517f08c379a0000000000000000000000000000000000000000000000000000000008152600401620001b19062000a8b565b60405180910390fd5b60005b825181101562000271576200025b83828151811062000205577f4e487b7100000000000000000000000000000000000000000000000000000000600052603260045260246000fd5b602002602001015183838151811062000247577f4e487b7100000000000000000000000000000000000000000000000000000000600052603260045260246000fd5b60200260200101516200037760201b60201c565b8080620002689062000ce4565b915050620001bd565b50505081601481905550806010908051906020019062000293929190620005b1565b5083516017819055505050505062000f5d565b600033905090565b60008060009054906101000a900473ffffffffffffffffffffffffffffffffffffffff169050816000806101000a81548173ffffffffffffffffffffffffffffffffffffffff021916908373ffffffffffffffffffffffffffffffffffffffff1602179055508173ffffffffffffffffffffffffffffffffffffffff168173ffffffffffffffffffffffffffffffffffffffff167f8be0079c531659141344cd1fd0a4f28419497f9722a3daafe3b4186f6b6457e060405160405180910390a35050565b600090565b600073ffffffffffffffffffffffffffffffffffffffff168273ffffffffffffffffffffffffffffffffffffffff161415620003ea576040517f08c379a0000000000000000000000000000000000000000000000000000000008152600401620003e19062000a25565b60405180910390fd5b6000811162000430576040517f08c379a0000000000000000000000000000000000000000000000000000000008152600401620004279062000aad565b60405180910390fd5b6000600b60008473ffffffffffffffffffffffffffffffffffffffff1673ffffffffffffffffffffffffffffffffffffffff1681526020019081526020016000205414620004b5576040517f08c379a0000000000000000000000000000000000000000000000000000000008152600401620004ac9062000a69565b60405180910390fd5b600d829080600181540180825580915050600190039060005260206000200160009091909190916101000a81548173ffffffffffffffffffffffffffffffffffffffff021916908373ffffffffffffffffffffffffffffffffffffffff16021790555080600b60008473ffffffffffffffffffffffffffffffffffffffff1673ffffffffffffffffffffffffffffffffffffffff16815260200190815260200160002081905550806009546200056c919062000b9d565b6009819055507f40c340f65e17194d14ddddb073d3c9f888e3cb52b5aae0c6c7706b4fbc905fac8282604051620005a5929190620009f8565b60405180910390a15050565b828054620005bf9062000c78565b90600052602060002090601f016020900481019282620005e357600085556200062f565b82601f10620005fe57805160ff19168380011785556200062f565b828001600101855582156200062f579182015b828111156200062e57825182559160200191906001019062000611565b5b5090506200063e919062000642565b5090565b5b808211156200065d57600081600090555060010162000643565b5090565b600062000678620006728462000af8565b62000acf565b905080838252602082019050828560208602820111156200069857600080fd5b60005b85811015620006cc5781620006b1888262000790565b8452602084019350602083019250506001810190506200069b565b5050509392505050565b6000620006ed620006e78462000b27565b62000acf565b905080838252602082019050828560208602820111156200070d57600080fd5b60005b8581101562000741578162000726888262000845565b84526020840193506020830192505060018101905062000710565b5050509392505050565b6000620007626200075c8462000b56565b62000acf565b9050828152602081018484840111156200077b57600080fd5b6200078884828562000c42565b509392505050565b600081519050620007a18162000f0f565b92915050565b600082601f830112620007b957600080fd5b8151620007cb84826020860162000661565b91505092915050565b600082601f830112620007e657600080fd5b8151620007f8848260208601620006d6565b91505092915050565b600081519050620008128162000f29565b92915050565b600082601f8301126200082a57600080fd5b81516200083c8482602086016200074b565b91505092915050565b600081519050620008568162000f43565b92915050565b600080600080608085870312156200087357600080fd5b600085015167ffffffffffffffff8111156200088e57600080fd5b6200089c87828801620007a7565b945050602085015167ffffffffffffffff811115620008ba57600080fd5b620008c887828801620007d4565b9350506040620008db8782880162000801565b925050606085015167ffffffffffffffff811115620008f957600080fd5b620009078782880162000818565b91505092959194509250565b6200091e8162000bfa565b82525050565b600062000933602c8362000b8c565b9150620009408262000dd0565b604082019050919050565b60006200095a60328362000b8c565b9150620009678262000e1f565b604082019050919050565b600062000981602b8362000b8c565b91506200098e8262000e6e565b604082019050919050565b6000620009a8601a8362000b8c565b9150620009b58262000ebd565b602082019050919050565b6000620009cf601d8362000b8c565b9150620009dc8262000ee6565b602082019050919050565b620009f28162000c38565b82525050565b600060408201905062000a0f600083018562000913565b62000a1e6020830184620009e7565b9392505050565b6000602082019050818103600083015262000a408162000924565b9050919050565b6000602082019050818103600083015262000a62816200094b565b9050919050565b6000602082019050818103600083015262000a848162000972565b9050919050565b6000602082019050818103600083015262000aa68162000999565b9050919050565b6000602082019050818103600083015262000ac881620009c0565b9050919050565b600062000adb62000aee565b905062000ae9828262000cae565b919050565b6000604051905090565b600067ffffffffffffffff82111562000b165762000b1562000d90565b5b602082029050602081019050919050565b600067ffffffffffffffff82111562000b455762000b4462000d90565b5b602082029050602081019050919050565b600067ffffffffffffffff82111562000b745762000b7362000d90565b5b62000b7f8262000dbf565b9050602081019050919050565b600082825260208201905092915050565b600062000baa8262000c38565b915062000bb78362000c38565b9250827fffffffffffffffffffffffffffffffffffffffffffffffffffffffffffffffff0382111562000bef5762000bee62000d32565b5b828201905092915050565b600062000c078262000c18565b9050919050565b6000819050919050565b600073ffffffffffffffffffffffffffffffffffffffff82169050919050565b6000819050919050565b60005b8381101562000c6257808201518184015260208101905062000c45565b8381111562000c72576000848401525b50505050565b6000600282049050600182168062000c9157607f821691505b6020821081141562000ca85762000ca762000d61565b5b50919050565b62000cb98262000dbf565b810181811067ffffffffffffffff8211171562000cdb5762000cda62000d90565b5b80604052505050565b600062000cf18262000c38565b91507fffffffffffffffffffffffffffffffffffffffffffffffffffffffffffffffff82141562000d275762000d2662000d32565b5b600182019050919050565b7f4e487b7100000000000000000000000000000000000000000000000000000000600052601160045260246000fd5b7f4e487b7100000000000000000000000000000000000000000000000000000000600052602260045260246000fd5b7f4e487b7100000000000000000000000000000000000000000000000000000000600052604160045260246000fd5b6000601f19601f8301169050919050565b7f5061796d656e7453706c69747465723a206163636f756e74206973207468652060008201527f7a65726f20616464726573730000000000000000000000000000000000000000602082015250565b7f5061796d656e7453706c69747465723a2070617965657320616e64207368617260008201527f6573206c656e677468206d69736d617463680000000000000000000000000000602082015250565b7f5061796d656e7453706c69747465723a206163636f756e7420616c726561647960008201527f2068617320736861726573000000000000000000000000000000000000000000602082015250565b7f5061796d656e7453706c69747465723a206e6f20706179656573000000000000600082015250565b7f5061796d656e7453706c69747465723a20736861726573206172652030000000600082015250565b62000f1a8162000bfa565b811462000f2657600080fd5b50565b62000f348162000c0e565b811462000f4057600080fd5b50565b62000f4e8162000c38565b811462000f5a57600080fd5b50565b6153fe8062000f6d6000396000f3fe60806040526004361061024a5760003560e01c8063734c66bd11610139578063b88d4fde116100b6578063d79779b21161007a578063d79779b2146108e5578063e33b7de314610922578063e6c8aeb81461094d578063e985e9c514610978578063f2fde38b146109b5578063f8dcbddb146109de57610291565b8063b88d4fde146107ee578063c87b56dd14610817578063cbccefb214610854578063cbce4c971461087f578063ce7c2ac2146108a857610291565b806395d89b41116100fd57806395d89b41146107165780639852595c146107415780639b6860c81461077e578063a22cb465146107a9578063ac5ae11b146107d257610291565b8063734c66bd1461062f5780637cb647591461065a5780638b83209b146106835780638da5cb5b146106c05780638e8bdd0d146106eb57610291565b80633a98ef39116101c7578063525f8a5c1161018b578063525f8a5c1461054a5780636352211e146105735780636c0360eb146105b057806370a08231146105db578063715018a61461061857610291565b80633a98ef3914610474578063406072a91461049f57806342842e0e146104dc57806348b75044146105055780634b11faaf1461052e57610291565b8063191655871161020e578063191655871461038f5780631c497f22146103b85780631cbaee2d146103f557806323b872dd146104205780632eb4a7ab1461044957610291565b806301ffc9a71461029657806306fdde03146102d3578063081812fc146102fe578063095ea7b31461033b57806318160ddd1461036457610291565b36610291577f6ef95f06320e7a25a04a175ca677b7052bdd97131872c2192525a629f51be770610278610a07565b346040516102879291906145c9565b60405180910390a1005b600080fd5b3480156102a257600080fd5b506102bd60048036038101906102b89190613eae565b610a0f565b6040516102ca91906145f2565b60405180910390f35b3480156102df57600080fd5b506102e8610af1565b6040516102f59190614643565b60405180910390f35b34801561030a57600080fd5b5061032560048036038101906103209190613f65565b610b83565b6040516103329190614539565b60405180910390f35b34801561034757600080fd5b50610362600480360381019061035d9190613db4565b610bff565b005b34801561037057600080fd5b50610379610d0a565b6040516103869190614925565b60405180910390f35b34801561039b57600080fd5b506103b660048036038101906103b19190613c49565b610d21565b005b3480156103c457600080fd5b506103df60048036038101906103da9190613c20565b610ecc565b6040516103ec9190614925565b60405180910390f35b34801561040157600080fd5b5061040a610ee4565b6040516104179190614925565b60405180910390f35b34801561042c57600080fd5b5061044760048036038101906104429190613cae565b610eea565b005b34801561045557600080fd5b5061045e610efa565b60405161046b919061460d565b60405180910390f35b34801561048057600080fd5b50610489610f00565b6040516104969190614925565b60405180910390f35b3480156104ab57600080fd5b506104c660048036038101906104c19190613f29565b610f0a565b6040516104d39190614925565b60405180910390f35b3480156104e857600080fd5b5061050360048036038101906104fe9190613cae565b610f91565b005b34801561051157600080fd5b5061052c60048036038101906105279190613f29565b610fb1565b005b61054860048036038101906105439190613df0565b611279565b005b34801561055657600080fd5b50610571600480360381019061056c9190613f65565b6115d8565b005b34801561057f57600080fd5b5061059a60048036038101906105959190613f65565b61165e565b6040516105a79190614539565b60405180910390f35b3480156105bc57600080fd5b506105c5611674565b6040516105d29190614643565b60405180910390f35b3480156105e757600080fd5b5061060260048036038101906105fd9190613c20565b611702565b60405161060f9190614925565b60405180910390f35b34801561062457600080fd5b5061062d6117d2565b005b34801561063b57600080fd5b5061064461185a565b6040516106519190614925565b60405180910390f35b34801561066657600080fd5b50610681600480360381019061067c9190613e85565b611860565b005b34801561068f57600080fd5b506106aa60048036038101906106a59190613f65565b6118e6565b6040516106b79190614539565b60405180910390f35b3480156106cc57600080fd5b506106d5611954565b6040516106e29190614539565b60405180910390f35b3480156106f757600080fd5b5061070061197d565b60405161070d9190614925565b60405180910390f35b34801561072257600080fd5b5061072b611987565b6040516107389190614643565b60405180910390f35b34801561074d57600080fd5b5061076860048036038101906107639190613c20565b611a19565b6040516107759190614925565b60405180910390f35b34801561078a57600080fd5b50610793611a62565b6040516107a09190614925565b60405180910390f35b3480156107b557600080fd5b506107d060048036038101906107cb9190613d78565b611a68565b005b6107ec60048036038101906107e79190613db4565b611be0565b005b3480156107fa57600080fd5b5061081560048036038101906108109190613cfd565b611e0f565b005b34801561082357600080fd5b5061083e60048036038101906108399190613f65565b611e8b565b60405161084b9190614643565b60405180910390f35b34801561086057600080fd5b50610869611f07565b6040516108769190614628565b60405180910390f35b34801561088b57600080fd5b506108a660048036038101906108a19190613db4565b611f1a565b005b3480156108b457600080fd5b506108cf60048036038101906108ca9190613c20565b6120bd565b6040516108dc9190614925565b60405180910390f35b3480156108f157600080fd5b5061090c60048036038101906109079190613f00565b612106565b6040516109199190614925565b60405180910390f35b34801561092e57600080fd5b5061093761214f565b6040516109449190614925565b60405180910390f35b34801561095957600080fd5b50610962612159565b60405161096f9190614925565b60405180910390f35b34801561098457600080fd5b5061099f600480360381019061099a9190613c72565b612163565b6040516109ac91906145f2565b60405180910390f35b3480156109c157600080fd5b506109dc60048036038101906109d79190613c20565b6121f7565b005b3480156109ea57600080fd5b50610a056004803603810190610a009190613f65565b6122ef565b005b600033905090565b60007f80ac58cd000000000000000000000000000000000000000000000000000000007bffffffffffffffffffffffffffffffffffffffffffffffffffffffff1916827bffffffffffffffffffffffffffffffffffffffffffffffffffffffff19161480610ada57507f5b5e139f000000000000000000000000000000000000000000000000000000007bffffffffffffffffffffffffffffffffffffffffffffffffffffffff1916827bffffffffffffffffffffffffffffffffffffffffffffffffffffffff1916145b80610aea5750610ae9826123f6565b5b9050919050565b606060038054610b0090614c4d565b80601f0160208091040260200160405190810160405280929190818152602001828054610b2c90614c4d565b8015610b795780601f10610b4e57610100808354040283529160200191610b79565b820191906000526020600020905b815481529060010190602001808311610b5c57829003601f168201915b5050505050905090565b6000610b8e82612460565b610bc4576040517fcf4700e400000000000000000000000000000000000000000000000000000000815260040160405180910390fd5b6007600083815260200190815260200160002060009054906101000a900473ffffffffffffffffffffffffffffffffffffffff169050919050565b6000610c0a8261165e565b90508073ffffffffffffffffffffffffffffffffffffffff168373ffffffffffffffffffffffffffffffffffffffff161415610c72576040517f943f7b8c00000000000000000000000000000000000000000000000000000000815260040160405180910390fd5b8073ffffffffffffffffffffffffffffffffffffffff16610c91610a07565b73ffffffffffffffffffffffffffffffffffffffff1614158015610cc35750610cc181610cbc610a07565b612163565b155b15610cfa576040517fcfb3b94200000000000000000000000000000000000000000000000000000000815260040160405180910390fd5b610d058383836124ae565b505050565b6000610d14612560565b6002546001540303905090565b6000600b60008373ffffffffffffffffffffffffffffffffffffffff1673ffffffffffffffffffffffffffffffffffffffff1681526020019081526020016000205411610da3576040517f08c379a0000000000000000000000000000000000000000000000000000000008152600401610d9a90614705565b60405180910390fd5b6000610dad61214f565b47610db891906149f9565b90506000610dcf8383610dca86611a19565b612565565b90506000811415610e15576040517f08c379a0000000000000000000000000000000000000000000000000000000008152600401610e0c906147a5565b60405180910390fd5b80600c60008573ffffffffffffffffffffffffffffffffffffffff1673ffffffffffffffffffffffffffffffffffffffff1681526020019081526020016000206000828254610e6491906149f9565b9250508190555080600a6000828254610e7d91906149f9565b92505081905550610e8e83826125d3565b7fdf20fd1e76bc69d672e4814fafb2c449bba3a5369d8359adf9e05e6fde87b0568382604051610ebf929190614554565b60405180910390a1505050565b60166020528060005260406000206000915090505481565b60155481565b610ef58383836126c7565b505050565b60145481565b6000600954905090565b6000600f60008473ffffffffffffffffffffffffffffffffffffffff1673ffffffffffffffffffffffffffffffffffffffff16815260200190815260200160002060008373ffffffffffffffffffffffffffffffffffffffff1673ffffffffffffffffffffffffffffffffffffffff16815260200190815260200160002054905092915050565b610fac83838360405180602001604052806000815250611e0f565b505050565b6000600b60008373ffffffffffffffffffffffffffffffffffffffff1673ffffffffffffffffffffffffffffffffffffffff1681526020019081526020016000205411611033576040517f08c379a000000000000000000000000000000000000000000000000000000000815260040161102a90614705565b60405180910390fd5b600061103e83612106565b8373ffffffffffffffffffffffffffffffffffffffff166370a08231306040518263ffffffff1660e01b81526004016110779190614539565b60206040518083038186803b15801561108f57600080fd5b505afa1580156110a3573d6000803e3d6000fd5b505050506040513d601f19601f820116820180604052508101906110c79190613f8e565b6110d191906149f9565b905060006110e983836110e48787610f0a565b612565565b9050600081141561112f576040517f08c379a0000000000000000000000000000000000000000000000000000000008152600401611126906147a5565b60405180910390fd5b80600f60008673ffffffffffffffffffffffffffffffffffffffff1673ffffffffffffffffffffffffffffffffffffffff16815260200190815260200160002060008573ffffffffffffffffffffffffffffffffffffffff1673ffffffffffffffffffffffffffffffffffffffff16815260200190815260200160002060008282546111bb91906149f9565b9250508190555080600e60008673ffffffffffffffffffffffffffffffffffffffff1673ffffffffffffffffffffffffffffffffffffffff168152602001908152602001600020600082825461121191906149f9565b92505081905550611223848483612b7d565b8373ffffffffffffffffffffffffffffffffffffffff167f3be5b7a71e84ed12875d241991c70855ac5817d847039e17a9d895c1ceb0f18a848360405161126b9291906145c9565b60405180910390a250505050565b3373ffffffffffffffffffffffffffffffffffffffff163273ffffffffffffffffffffffffffffffffffffffff16146112e7576040517f08c379a00000000000000000000000000000000000000000000000000000000081526004016112de90614805565b60405180910390fd5b600060125490506000811415611332576040517f08c379a000000000000000000000000000000000000000000000000000000000815260040161132990614865565b60405180910390fd5b6001600481111561136c577f4e487b7100000000000000000000000000000000000000000000000000000000600052602160045260246000fd5b601160009054906101000a900460ff1660048111156113b4577f4e487b7100000000000000000000000000000000000000000000000000000000600052602160045260246000fd5b146113f4576040517f08c379a00000000000000000000000000000000000000000000000000000000081526004016113eb906147c5565b60405180910390fd5b6113ff338484612c03565b61143e576040517f08c379a000000000000000000000000000000000000000000000000000000000815260040161143590614825565b60405180910390fd5b600184601660003373ffffffffffffffffffffffffffffffffffffffff1673ffffffffffffffffffffffffffffffffffffffff1681526020019081526020016000205461148b91906149f9565b11156114cc576040517f08c379a00000000000000000000000000000000000000000000000000000000081526004016114c390614845565b60405180910390fd5b610b48846114d8610d0a565b6114e291906149f9565b1115611523576040517f08c379a000000000000000000000000000000000000000000000000000000000815260040161151a90614685565b60405180910390fd5b838161152f9190614a80565b341015611571576040517f08c379a000000000000000000000000000000000000000000000000000000000815260040161156890614905565b60405180910390fd5b83601660003373ffffffffffffffffffffffffffffffffffffffff1673ffffffffffffffffffffffffffffffffffffffff16815260200190815260200160002060008282546115c091906149f9565b925050819055506115d18585612c61565b5050505050565b6115e0610a07565b73ffffffffffffffffffffffffffffffffffffffff166115fe611954565b73ffffffffffffffffffffffffffffffffffffffff1614611654576040517f08c379a000000000000000000000000000000000000000000000000000000000815260040161164b90614885565b60405180910390fd5b8060158190555050565b600061166982612c7f565b600001519050919050565b6010805461168190614c4d565b80601f01602080910402602001604051908101604052809291908181526020018280546116ad90614c4d565b80156116fa5780601f106116cf576101008083540402835291602001916116fa565b820191906000526020600020905b8154815290600101906020018083116116dd57829003601f168201915b505050505081565b60008073ffffffffffffffffffffffffffffffffffffffff168273ffffffffffffffffffffffffffffffffffffffff16141561176a576040517f8f4eb60400000000000000000000000000000000000000000000000000000000815260040160405180910390fd5b600660008373ffffffffffffffffffffffffffffffffffffffff1673ffffffffffffffffffffffffffffffffffffffff16815260200190815260200160002060000160009054906101000a900467ffffffffffffffff1667ffffffffffffffff169050919050565b6117da610a07565b73ffffffffffffffffffffffffffffffffffffffff166117f8611954565b73ffffffffffffffffffffffffffffffffffffffff161461184e576040517f08c379a000000000000000000000000000000000000000000000000000000000815260040161184590614885565b60405180910390fd5b6118586000612f0e565b565b60125481565b611868610a07565b73ffffffffffffffffffffffffffffffffffffffff16611886611954565b73ffffffffffffffffffffffffffffffffffffffff16146118dc576040517f08c379a00000000000000000000000000000000000000000000000000000000081526004016118d390614885565b60405180910390fd5b8060148190555050565b6000600d8281548110611922577f4e487b7100000000000000000000000000000000000000000000000000000000600052603260045260246000fd5b9060005260206000200160009054906101000a900473ffffffffffffffffffffffffffffffffffffffff169050919050565b60008060009054906101000a900473ffffffffffffffffffffffffffffffffffffffff16905090565b6000601354905090565b60606004805461199690614c4d565b80601f01602080910402602001604051908101604052809291908181526020018280546119c290614c4d565b8015611a0f5780601f106119e457610100808354040283529160200191611a0f565b820191906000526020600020905b8154815290600101906020018083116119f257829003601f168201915b5050505050905090565b6000600c60008373ffffffffffffffffffffffffffffffffffffffff1673ffffffffffffffffffffffffffffffffffffffff168152602001908152602001600020549050919050565b60135481565b611a70610a07565b73ffffffffffffffffffffffffffffffffffffffff168273ffffffffffffffffffffffffffffffffffffffff161415611ad5576040517fb06307db00000000000000000000000000000000000000000000000000000000815260040160405180910390fd5b8060086000611ae2610a07565b73ffffffffffffffffffffffffffffffffffffffff1673ffffffffffffffffffffffffffffffffffffffff16815260200190815260200160002060008473ffffffffffffffffffffffffffffffffffffffff1673ffffffffffffffffffffffffffffffffffffffff16815260200190815260200160002060006101000a81548160ff0219169083151502179055508173ffffffffffffffffffffffffffffffffffffffff16611b8f610a07565b73ffffffffffffffffffffffffffffffffffffffff167f17307eab39ab6107e8899845ad3d59bd9653f200f220920489ca2b5937696c3183604051611bd491906145f2565b60405180910390a35050565b3373ffffffffffffffffffffffffffffffffffffffff163273ffffffffffffffffffffffffffffffffffffffff1614611c4e576040517f08c379a0000000000000000000000000000000000000000000000000000000008152600401611c4590614805565b60405180910390fd5b600060135490506000811415611c99576040517f08c379a0000000000000000000000000000000000000000000000000000000008152600401611c90906148e5565b60405180910390fd5b60026004811115611cd3577f4e487b7100000000000000000000000000000000000000000000000000000000600052602160045260246000fd5b601160009054906101000a900460ff166004811115611d1b577f4e487b7100000000000000000000000000000000000000000000000000000000600052602160045260246000fd5b14611d5b576040517f08c379a0000000000000000000000000000000000000000000000000000000008152600401611d52906147e5565b60405180910390fd5b61170c82611d67610d0a565b611d7191906149f9565b1115611db2576040517f08c379a0000000000000000000000000000000000000000000000000000000008152600401611da9906146c5565b60405180910390fd5b8181611dbe9190614a80565b341015611e00576040517f08c379a0000000000000000000000000000000000000000000000000000000008152600401611df790614905565b60405180910390fd5b611e0a8383612c61565b505050565b611e1a8484846126c7565b611e398373ffffffffffffffffffffffffffffffffffffffff16612fd2565b8015611e4e5750611e4c84848484612ff5565b155b15611e85576040517fd1a57ed600000000000000000000000000000000000000000000000000000000815260040160405180910390fd5b50505050565b6060611e9682612460565b611ed5576040517f08c379a0000000000000000000000000000000000000000000000000000000008152600401611ecc90614665565b60405180910390fd5b6010611ee083613155565b604051602001611ef19291906144f5565b6040516020818303038152906040529050919050565b601160009054906101000a900460ff1681565b611f22610a07565b73ffffffffffffffffffffffffffffffffffffffff16611f40611954565b73ffffffffffffffffffffffffffffffffffffffff1614611f96576040517f08c379a0000000000000000000000000000000000000000000000000000000008152600401611f8d90614885565b60405180910390fd5b60026004811115611fd0577f4e487b7100000000000000000000000000000000000000000000000000000000600052602160045260246000fd5b601160009054906101000a900460ff166004811115612018577f4e487b7100000000000000000000000000000000000000000000000000000000600052602160045260246000fd5b11612058576040517f08c379a000000000000000000000000000000000000000000000000000000000815260040161204f906146e5565b60405180910390fd5b6122b881612064610d0a565b61206e91906149f9565b11156120af576040517f08c379a00000000000000000000000000000000000000000000000000000000081526004016120a690614725565b60405180910390fd5b6120b98282612c61565b5050565b6000600b60008373ffffffffffffffffffffffffffffffffffffffff1673ffffffffffffffffffffffffffffffffffffffff168152602001908152602001600020549050919050565b6000600e60008373ffffffffffffffffffffffffffffffffffffffff1673ffffffffffffffffffffffffffffffffffffffff168152602001908152602001600020549050919050565b6000600a54905090565b6000601254905090565b6000600860008473ffffffffffffffffffffffffffffffffffffffff1673ffffffffffffffffffffffffffffffffffffffff16815260200190815260200160002060008373ffffffffffffffffffffffffffffffffffffffff1673ffffffffffffffffffffffffffffffffffffffff16815260200190815260200160002060009054906101000a900460ff16905092915050565b6121ff610a07565b73ffffffffffffffffffffffffffffffffffffffff1661221d611954565b73ffffffffffffffffffffffffffffffffffffffff1614612273576040517f08c379a000000000000000000000000000000000000000000000000000000000815260040161226a90614885565b60405180910390fd5b600073ffffffffffffffffffffffffffffffffffffffff168173ffffffffffffffffffffffffffffffffffffffff1614156122e3576040517f08c379a00000000000000000000000000000000000000000000000000000000081526004016122da906146a5565b60405180910390fd5b6122ec81612f0e565b50565b6122f7610a07565b73ffffffffffffffffffffffffffffffffffffffff16612315611954565b73ffffffffffffffffffffffffffffffffffffffff161461236b576040517f08c379a000000000000000000000000000000000000000000000000000000000815260040161236290614885565b60405180910390fd5b8060048111156123a4577f4e487b7100000000000000000000000000000000000000000000000000000000600052602160045260246000fd5b601160006101000a81548160ff021916908360048111156123ee577f4e487b7100000000000000000000000000000000000000000000000000000000600052602160045260246000fd5b021790555050565b60007f01ffc9a7000000000000000000000000000000000000000000000000000000007bffffffffffffffffffffffffffffffffffffffffffffffffffffffff1916827bffffffffffffffffffffffffffffffffffffffffffffffffffffffff1916149050919050565b60008161246b612560565b1115801561247a575060015482105b80156124a7575060056000838152602001908152602001600020600001601c9054906101000a900460ff16155b9050919050565b826007600084815260200190815260200160002060006101000a81548173ffffffffffffffffffffffffffffffffffffffff021916908373ffffffffffffffffffffffffffffffffffffffff160217905550818373ffffffffffffffffffffffffffffffffffffffff168273ffffffffffffffffffffffffffffffffffffffff167f8c5be1e5ebec7d5bd14f71427d1e84f3dd0314c0f7b2291e5b200ac8c7c3b92560405160405180910390a4505050565b600090565b600081600954600b60008773ffffffffffffffffffffffffffffffffffffffff1673ffffffffffffffffffffffffffffffffffffffff16815260200190815260200160002054856125b69190614a80565b6125c09190614a4f565b6125ca9190614ada565b90509392505050565b80471015612616576040517f08c379a000000000000000000000000000000000000000000000000000000000815260040161260d90614765565b60405180910390fd5b60008273ffffffffffffffffffffffffffffffffffffffff168260405161263c90614524565b60006040518083038185875af1925050503d8060008114612679576040519150601f19603f3d011682016040523d82523d6000602084013e61267e565b606091505b50509050806126c2576040517f08c379a00000000000000000000000000000000000000000000000000000000081526004016126b990614745565b60405180910390fd5b505050565b60006126d282612c7f565b90508373ffffffffffffffffffffffffffffffffffffffff16816000015173ffffffffffffffffffffffffffffffffffffffff161461273d576040517fa114810000000000000000000000000000000000000000000000000000000000815260040160405180910390fd5b60008473ffffffffffffffffffffffffffffffffffffffff1661275e610a07565b73ffffffffffffffffffffffffffffffffffffffff16148061278d575061278c85612787610a07565b612163565b5b806127d2575061279b610a07565b73ffffffffffffffffffffffffffffffffffffffff166127ba84610b83565b73ffffffffffffffffffffffffffffffffffffffff16145b90508061280b576040517f59c896be00000000000000000000000000000000000000000000000000000000815260040160405180910390fd5b600073ffffffffffffffffffffffffffffffffffffffff168473ffffffffffffffffffffffffffffffffffffffff161415612872576040517fea553b3400000000000000000000000000000000000000000000000000000000815260040160405180910390fd5b61287f8585856001613302565b61288b600084876124ae565b6001600660008773ffffffffffffffffffffffffffffffffffffffff1673ffffffffffffffffffffffffffffffffffffffff16815260200190815260200160002060000160008282829054906101000a900467ffffffffffffffff160392506101000a81548167ffffffffffffffff021916908367ffffffffffffffff1602179055506001600660008673ffffffffffffffffffffffffffffffffffffffff1673ffffffffffffffffffffffffffffffffffffffff16815260200190815260200160002060000160008282829054906101000a900467ffffffffffffffff160192506101000a81548167ffffffffffffffff021916908367ffffffffffffffff1602179055506000600560008581526020019081526020016000209050848160000160006101000a81548173ffffffffffffffffffffffffffffffffffffffff021916908373ffffffffffffffffffffffffffffffffffffffff160217905550428160000160146101000a81548167ffffffffffffffff021916908367ffffffffffffffff16021790555060006001850190506000600560008381526020019081526020016000209050600073ffffffffffffffffffffffffffffffffffffffff168160000160009054906101000a900473ffffffffffffffffffffffffffffffffffffffff1673ffffffffffffffffffffffffffffffffffffffff161415612b0b576001548214612b0a57878160000160006101000a81548173ffffffffffffffffffffffffffffffffffffffff021916908373ffffffffffffffffffffffffffffffffffffffff16021790555084602001518160000160146101000a81548167ffffffffffffffff021916908367ffffffffffffffff1602179055505b5b505050828473ffffffffffffffffffffffffffffffffffffffff168673ffffffffffffffffffffffffffffffffffffffff167fddf252ad1be2c89b69c2b068fc378daa952ba7f163c4a11628f55a4df523b3ef60405160405180910390a4612b768585856001613308565b5050505050565b612bfe8363a9059cbb60e01b8484604051602401612b9c9291906145c9565b604051602081830303815290604052907bffffffffffffffffffffffffffffffffffffffffffffffffffffffff19166020820180517bffffffffffffffffffffffffffffffffffffffffffffffffffffffff838183161783525050505061330e565b505050565b6000612c58612c11856133d5565b848480806020026020016040519081016040528093929190818152602001838360200280828437600081840152601f19601f82011690508083019250505050505050613405565b90509392505050565b612c7b82826040518060200160405280600081525061341c565b5050565b612c87613a59565b600082905080612c95612560565b11158015612ca4575060015481105b15612ed7576000600560008381526020019081526020016000206040518060600160405290816000820160009054906101000a900473ffffffffffffffffffffffffffffffffffffffff1673ffffffffffffffffffffffffffffffffffffffff1673ffffffffffffffffffffffffffffffffffffffff1681526020016000820160149054906101000a900467ffffffffffffffff1667ffffffffffffffff1667ffffffffffffffff16815260200160008201601c9054906101000a900460ff16151515158152505090508060400151612ed557600073ffffffffffffffffffffffffffffffffffffffff16816000015173ffffffffffffffffffffffffffffffffffffffff1614612db9578092505050612f09565b5b600115612ed457818060019003925050600560008381526020019081526020016000206040518060600160405290816000820160009054906101000a900473ffffffffffffffffffffffffffffffffffffffff1673ffffffffffffffffffffffffffffffffffffffff1673ffffffffffffffffffffffffffffffffffffffff1681526020016000820160149054906101000a900467ffffffffffffffff1667ffffffffffffffff1667ffffffffffffffff16815260200160008201601c9054906101000a900460ff1615151515815250509050600073ffffffffffffffffffffffffffffffffffffffff16816000015173ffffffffffffffffffffffffffffffffffffffff1614612ecf578092505050612f09565b612dba565b5b505b6040517fdf2d9b4200000000000000000000000000000000000000000000000000000000815260040160405180910390fd5b919050565b60008060009054906101000a900473ffffffffffffffffffffffffffffffffffffffff169050816000806101000a81548173ffffffffffffffffffffffffffffffffffffffff021916908373ffffffffffffffffffffffffffffffffffffffff1602179055508173ffffffffffffffffffffffffffffffffffffffff168173ffffffffffffffffffffffffffffffffffffffff167f8be0079c531659141344cd1fd0a4f28419497f9722a3daafe3b4186f6b6457e060405160405180910390a35050565b6000808273ffffffffffffffffffffffffffffffffffffffff163b119050919050565b60008373ffffffffffffffffffffffffffffffffffffffff1663150b7a0261301b610a07565b8786866040518563ffffffff1660e01b815260040161303d949392919061457d565b602060405180830381600087803b15801561305757600080fd5b505af192505050801561308857506040513d601f19601f820116820180604052508101906130859190613ed7565b60015b613102573d80600081146130b8576040519150601f19603f3d011682016040523d82523d6000602084013e6130bd565b606091505b506000815114156130fa576040517fd1a57ed600000000000000000000000000000000000000000000000000000000815260040160405180910390fd5b805181602001fd5b63150b7a0260e01b7bffffffffffffffffffffffffffffffffffffffffffffffffffffffff1916817bffffffffffffffffffffffffffffffffffffffffffffffffffffffff191614915050949350505050565b6060600082141561319d576040518060400160405280600181526020017f300000000000000000000000000000000000000000000000000000000000000081525090506132fd565b600082905060005b600082146131cf5780806131b890614cb0565b915050600a826131c89190614a4f565b91506131a5565b60008167ffffffffffffffff811115613211577f4e487b7100000000000000000000000000000000000000000000000000000000600052604160045260246000fd5b6040519080825280601f01601f1916602001820160405280156132435781602001600182028036833780820191505090505b5090505b600085146132f65760018261325c9190614ada565b9150600a8561326b9190614d1d565b603061327791906149f9565b60f81b8183815181106132b3577f4e487b7100000000000000000000000000000000000000000000000000000000600052603260045260246000fd5b60200101907effffffffffffffffffffffffffffffffffffffffffffffffffffffffffffff1916908160001a905350600a856132ef9190614a4f565b9450613247565b8093505050505b919050565b50505050565b50505050565b6000613370826040518060400160405280602081526020017f5361666545524332303a206c6f772d6c6576656c2063616c6c206661696c65648152508573ffffffffffffffffffffffffffffffffffffffff1661342e9092919063ffffffff16565b90506000815111156133d057808060200190518101906133909190613e5c565b6133cf576040517f08c379a00000000000000000000000000000000000000000000000000000000081526004016133c6906148c5565b60405180910390fd5b5b505050565b6000816040516020016133e891906144c3565b604051602081830303815290604052805190602001209050919050565b60006134148260145485613446565b905092915050565b613429838383600161345d565b505050565b606061343d848460008561382c565b90509392505050565b6000826134538584613940565b1490509392505050565b60006001549050600073ffffffffffffffffffffffffffffffffffffffff168573ffffffffffffffffffffffffffffffffffffffff1614156134cb576040517f2e07630000000000000000000000000000000000000000000000000000000000815260040160405180910390fd5b6000841415613506576040517fb562e8dd00000000000000000000000000000000000000000000000000000000815260040160405180910390fd5b6135136000868387613302565b83600660008773ffffffffffffffffffffffffffffffffffffffff1673ffffffffffffffffffffffffffffffffffffffff16815260200190815260200160002060000160008282829054906101000a900467ffffffffffffffff160192506101000a81548167ffffffffffffffff021916908367ffffffffffffffff16021790555083600660008773ffffffffffffffffffffffffffffffffffffffff1673ffffffffffffffffffffffffffffffffffffffff16815260200190815260200160002060000160088282829054906101000a900467ffffffffffffffff160192506101000a81548167ffffffffffffffff021916908367ffffffffffffffff160217905550846005600083815260200190815260200160002060000160006101000a81548173ffffffffffffffffffffffffffffffffffffffff021916908373ffffffffffffffffffffffffffffffffffffffff160217905550426005600083815260200190815260200160002060000160146101000a81548167ffffffffffffffff021916908367ffffffffffffffff1602179055506000819050600085820190508380156136dd57506136dc8773ffffffffffffffffffffffffffffffffffffffff16612fd2565b5b156137a3575b818773ffffffffffffffffffffffffffffffffffffffff16600073ffffffffffffffffffffffffffffffffffffffff167fddf252ad1be2c89b69c2b068fc378daa952ba7f163c4a11628f55a4df523b3ef60405160405180910390a46137526000888480600101955088612ff5565b613788576040517fd1a57ed600000000000000000000000000000000000000000000000000000000815260040160405180910390fd5b808214156136e357826001541461379e57600080fd5b61380f565b5b818060010192508773ffffffffffffffffffffffffffffffffffffffff16600073ffffffffffffffffffffffffffffffffffffffff167fddf252ad1be2c89b69c2b068fc378daa952ba7f163c4a11628f55a4df523b3ef60405160405180910390a4808214156137a4575b8160018190555050506138256000868387613308565b5050505050565b606082471015613871576040517f08c379a000000000000000000000000000000000000000000000000000000000815260040161386890614785565b60405180910390fd5b61387a85612fd2565b6138b9576040517f08c379a00000000000000000000000000000000000000000000000000000000081526004016138b0906148a5565b60405180910390fd5b6000808673ffffffffffffffffffffffffffffffffffffffff1685876040516138e291906144de565b60006040518083038185875af1925050503d806000811461391f576040519150601f19603f3d011682016040523d82523d6000602084013e613924565b606091505b50915091506139348282866139db565b92505050949350505050565b60008082905060005b84518110156139d057600085828151811061398d577f4e487b7100000000000000000000000000000000000000000000000000000000600052603260045260246000fd5b602002602001015190508083116139af576139a88382613a42565b92506139bc565b6139b98184613a42565b92505b5080806139c890614cb0565b915050613949565b508091505092915050565b606083156139eb57829050613a3b565b6000835111156139fe5782518084602001fd5b816040517f08c379a0000000000000000000000000000000000000000000000000000000008152600401613a329190614643565b60405180910390fd5b9392505050565b600082600052816020526040600020905092915050565b6040518060600160405280600073ffffffffffffffffffffffffffffffffffffffff168152602001600067ffffffffffffffff1681526020016000151581525090565b6000613aaf613aaa84614965565b614940565b905082815260208101848484011115613ac757600080fd5b613ad2848285614c0b565b509392505050565b600081359050613ae981615327565b92915050565b600081359050613afe8161533e565b92915050565b60008083601f840112613b1657600080fd5b8235905067ffffffffffffffff811115613b2f57600080fd5b602083019150836020820283011115613b4757600080fd5b9250929050565b600081359050613b5d81615355565b92915050565b600081519050613b7281615355565b92915050565b600081359050613b878161536c565b92915050565b600081359050613b9c81615383565b92915050565b600081519050613bb181615383565b92915050565b600082601f830112613bc857600080fd5b8135613bd8848260208601613a9c565b91505092915050565b600081359050613bf08161539a565b92915050565b600081359050613c05816153b1565b92915050565b600081519050613c1a816153b1565b92915050565b600060208284031215613c3257600080fd5b6000613c4084828501613ada565b91505092915050565b600060208284031215613c5b57600080fd5b6000613c6984828501613aef565b91505092915050565b60008060408385031215613c8557600080fd5b6000613c9385828601613ada565b9250506020613ca485828601613ada565b9150509250929050565b600080600060608486031215613cc357600080fd5b6000613cd186828701613ada565b9350506020613ce286828701613ada565b9250506040613cf386828701613bf6565b9150509250925092565b60008060008060808587031215613d1357600080fd5b6000613d2187828801613ada565b9450506020613d3287828801613ada565b9350506040613d4387828801613bf6565b925050606085013567ffffffffffffffff811115613d6057600080fd5b613d6c87828801613bb7565b91505092959194509250565b60008060408385031215613d8b57600080fd5b6000613d9985828601613ada565b9250506020613daa85828601613b4e565b9150509250929050565b60008060408385031215613dc757600080fd5b6000613dd585828601613ada565b9250506020613de685828601613bf6565b9150509250929050565b60008060008060608587031215613e0657600080fd5b6000613e1487828801613ada565b9450506020613e2587828801613bf6565b935050604085013567ffffffffffffffff811115613e4257600080fd5b613e4e87828801613b04565b925092505092959194509250565b600060208284031215613e6e57600080fd5b6000613e7c84828501613b63565b91505092915050565b600060208284031215613e9757600080fd5b6000613ea584828501613b78565b91505092915050565b600060208284031215613ec057600080fd5b6000613ece84828501613b8d565b91505092915050565b600060208284031215613ee957600080fd5b6000613ef784828501613ba2565b91505092915050565b600060208284031215613f1257600080fd5b6000613f2084828501613be1565b91505092915050565b60008060408385031215613f3c57600080fd5b6000613f4a85828601613be1565b9250506020613f5b85828601613ada565b9150509250929050565b600060208284031215613f7757600080fd5b6000613f8584828501613bf6565b91505092915050565b600060208284031215613fa057600080fd5b6000613fae84828501613c0b565b91505092915050565b613fc081614bc3565b82525050565b613fcf81614b0e565b82525050565b613fe6613fe182614b0e565b614cf9565b82525050565b613ff581614b32565b82525050565b61400481614b3e565b82525050565b6000614015826149ab565b61401f81856149c1565b935061402f818560208601614c1a565b61403881614e39565b840191505092915050565b600061404e826149ab565b61405881856149d2565b9350614068818560208601614c1a565b80840191505092915050565b61407d81614bd5565b82525050565b600061408e826149b6565b61409881856149dd565b93506140a8818560208601614c1a565b6140b181614e39565b840191505092915050565b60006140c7826149b6565b6140d181856149ee565b93506140e1818560208601614c1a565b80840191505092915050565b600081546140fa81614c4d565b61410481866149ee565b9450600182166000811461411f576001811461413057614163565b60ff19831686528186019350614163565b61413985614996565b60005b8381101561415b5781548189015260018201915060208101905061413c565b838801955050505b50505092915050565b60006141796020836149dd565b915061418482614e57565b602082019050919050565b600061419c6013836149dd565b91506141a782614e80565b602082019050919050565b60006141bf6026836149dd565b91506141ca82614ea9565b604082019050919050565b60006141e26013836149dd565b91506141ed82614ef8565b602082019050919050565b6000614205601d836149dd565b915061421082614f21565b602082019050919050565b60006142286026836149dd565b915061423382614f4a565b604082019050919050565b600061424b6012836149dd565b915061425682614f99565b602082019050919050565b600061426e603a836149dd565b915061427982614fc2565b604082019050919050565b6000614291601d836149dd565b915061429c82615011565b602082019050919050565b60006142b46026836149dd565b91506142bf8261503a565b604082019050919050565b60006142d7602b836149dd565b91506142e282615089565b604082019050919050565b60006142fa601f836149dd565b9150614305826150d8565b602082019050919050565b600061431d601b836149dd565b915061432882615101565b602082019050919050565b6000614340601e836149dd565b915061434b8261512a565b602082019050919050565b6000614363600f836149dd565b915061436e82615153565b602082019050919050565b6000614386602d836149dd565b91506143918261517c565b604082019050919050565b60006143a96005836149ee565b91506143b4826151cb565b600582019050919050565b60006143cc600a836149dd565b91506143d7826151f4565b602082019050919050565b60006143ef6020836149dd565b91506143fa8261521d565b602082019050919050565b60006144126000836149d2565b915061441d82615246565b600082019050919050565b6000614435601d836149dd565b915061444082615249565b602082019050919050565b6000614458602a836149dd565b915061446382615272565b604082019050919050565b600061447b600a836149dd565b9150614486826152c1565b602082019050919050565b600061449e6011836149dd565b91506144a9826152ea565b602082019050919050565b6144bd81614bb9565b82525050565b60006144cf8284613fd5565b60148201915081905092915050565b60006144ea8284614043565b915081905092915050565b600061450182856140ed565b915061450d82846140bc565b91506145188261439c565b91508190509392505050565b600061452f82614405565b9150819050919050565b600060208201905061454e6000830184613fc6565b92915050565b60006040820190506145696000830185613fb7565b61457660208301846144b4565b9392505050565b60006080820190506145926000830187613fc6565b61459f6020830186613fc6565b6145ac60408301856144b4565b81810360608301526145be818461400a565b905095945050505050565b60006040820190506145de6000830185613fc6565b6145eb60208301846144b4565b9392505050565b60006020820190506146076000830184613fec565b92915050565b60006020820190506146226000830184613ffb565b92915050565b600060208201905061463d6000830184614074565b92915050565b6000602082019050818103600083015261465d8184614083565b905092915050565b6000602082019050818103600083015261467e8161416c565b9050919050565b6000602082019050818103600083015261469e8161418f565b9050919050565b600060208201905081810360008301526146be816141b2565b9050919050565b600060208201905081810360008301526146de816141d5565b9050919050565b600060208201905081810360008301526146fe816141f8565b9050919050565b6000602082019050818103600083015261471e8161421b565b9050919050565b6000602082019050818103600083015261473e8161423e565b9050919050565b6000602082019050818103600083015261475e81614261565b9050919050565b6000602082019050818103600083015261477e81614284565b9050919050565b6000602082019050818103600083015261479e816142a7565b9050919050565b600060208201905081810360008301526147be816142ca565b9050919050565b600060208201905081810360008301526147de816142ed565b9050919050565b600060208201905081810360008301526147fe81614310565b9050919050565b6000602082019050818103600083015261481e81614333565b9050919050565b6000602082019050818103600083015261483e81614356565b9050919050565b6000602082019050818103600083015261485e81614379565b9050919050565b6000602082019050818103600083015261487e816143bf565b9050919050565b6000602082019050818103600083015261489e816143e2565b9050919050565b600060208201905081810360008301526148be81614428565b9050919050565b600060208201905081810360008301526148de8161444b565b9050919050565b600060208201905081810360008301526148fe8161446e565b9050919050565b6000602082019050818103600083015261491e81614491565b9050919050565b600060208201905061493a60008301846144b4565b92915050565b600061494a61495b565b90506149568282614c7f565b919050565b6000604051905090565b600067ffffffffffffffff8211156149805761497f614e0a565b5b61498982614e39565b9050602081019050919050565b60008190508160005260206000209050919050565b600081519050919050565b600081519050919050565b600082825260208201905092915050565b600081905092915050565b600082825260208201905092915050565b600081905092915050565b6000614a0482614bb9565b9150614a0f83614bb9565b9250827fffffffffffffffffffffffffffffffffffffffffffffffffffffffffffffffff03821115614a4457614a43614d4e565b5b828201905092915050565b6000614a5a82614bb9565b9150614a6583614bb9565b925082614a7557614a74614d7d565b5b828204905092915050565b6000614a8b82614bb9565b9150614a9683614bb9565b9250817fffffffffffffffffffffffffffffffffffffffffffffffffffffffffffffffff0483118215151615614acf57614ace614d4e565b5b828202905092915050565b6000614ae582614bb9565b9150614af083614bb9565b925082821015614b0357614b02614d4e565b5b828203905092915050565b6000614b1982614b99565b9050919050565b6000614b2b82614b99565b9050919050565b60008115159050919050565b6000819050919050565b60007fffffffff0000000000000000000000000000000000000000000000000000000082169050919050565b6000614b7f82614b0e565b9050919050565b6000819050614b9482615313565b919050565b600073ffffffffffffffffffffffffffffffffffffffff82169050919050565b6000819050919050565b6000614bce82614be7565b9050919050565b6000614be082614b86565b9050919050565b6000614bf282614bf9565b9050919050565b6000614c0482614b99565b9050919050565b82818337600083830152505050565b60005b83811015614c38578082015181840152602081019050614c1d565b83811115614c47576000848401525b50505050565b60006002820490506001821680614c6557607f821691505b60208210811415614c7957614c78614ddb565b5b50919050565b614c8882614e39565b810181811067ffffffffffffffff82111715614ca757614ca6614e0a565b5b80604052505050565b6000614cbb82614bb9565b91507fffffffffffffffffffffffffffffffffffffffffffffffffffffffffffffffff821415614cee57614ced614d4e565b5b600182019050919050565b6000614d0482614d0b565b9050919050565b6000614d1682614e4a565b9050919050565b6000614d2882614bb9565b9150614d3383614bb9565b925082614d4357614d42614d7d565b5b828206905092915050565b7f4e487b7100000000000000000000000000000000000000000000000000000000600052601160045260246000fd5b7f4e487b7100000000000000000000000000000000000000000000000000000000600052601260045260246000fd5b7f4e487b7100000000000000000000000000000000000000000000000000000000600052602160045260246000fd5b7f4e487b7100000000000000000000000000000000000000000000000000000000600052602260045260246000fd5b7f4e487b7100000000000000000000000000000000000000000000000000000000600052604160045260246000fd5b6000601f19601f8301169050919050565b60008160601b9050919050565b7f55524920717565727920666f72206e6f6e6578697374656e7420746f6b656e20600082015250565b7f4d617820737570706c7920657863656564656400000000000000000000000000600082015250565b7f4f776e61626c653a206e6577206f776e657220697320746865207a65726f206160008201527f6464726573730000000000000000000000000000000000000000000000000000602082015250565b7f6d617820737570706c7920657863656564656400000000000000000000000000600082015250565b7f4769667420697320616674657220746865207075626c69632073616c65000000600082015250565b7f5061796d656e7453706c69747465723a206163636f756e7420686173206e6f2060008201527f7368617265730000000000000000000000000000000000000000000000000000602082015250565b7f52656163686564206d617820737570706c790000000000000000000000000000600082015250565b7f416464726573733a20756e61626c6520746f2073656e642076616c75652c207260008201527f6563697069656e74206d61792068617665207265766572746564000000000000602082015250565b7f416464726573733a20696e73756666696369656e742062616c616e6365000000600082015250565b7f416464726573733a20696e73756666696369656e742062616c616e636520666f60008201527f722063616c6c0000000000000000000000000000000000000000000000000000602082015250565b7f5061796d656e7453706c69747465723a206163636f756e74206973206e6f742060008201527f647565207061796d656e74000000000000000000000000000000000000000000602082015250565b7f57686974656c6973742073616c65206973206e6f742061637469766174656400600082015250565b7f5075626c69632073616c65206973206e6f742061637469766174650000000000600082015250565b7f5468652063616c6c657220697320616e6f7468657220636f6e74726163740000600082015250565b7f4e6f742077686974656c69737465640000000000000000000000000000000000600082015250565b7f596f752063616e206f6e6c79206d696e742031204e4654206f6e20746865207760008201527f686974656c6973742053616c6500000000000000000000000000000000000000602082015250565b7f2e6a736f6e000000000000000000000000000000000000000000000000000000600082015250565b7f7072696365206973203000000000000000000000000000000000000000000000600082015250565b7f4f776e61626c653a2063616c6c6572206973206e6f7420746865206f776e6572600082015250565b50565b7f416464726573733a2063616c6c20746f206e6f6e2d636f6e7472616374000000600082015250565b7f5361666545524332303a204552433230206f7065726174696f6e20646964206e60008201527f6f74207375636365656400000000000000000000000000000000000000000000602082015250565b7f5072696365206973203000000000000000000000000000000000000000000000600082015250565b7f4e6f7420656e6f756768742066756e6473000000000000000000000000000000600082015250565b6005811061532457615323614dac565b5b50565b61533081614b0e565b811461533b57600080fd5b50565b61534781614b20565b811461535257600080fd5b50565b61535e81614b32565b811461536957600080fd5b50565b61537581614b3e565b811461538057600080fd5b50565b61538c81614b48565b811461539757600080fd5b50565b6153a381614b74565b81146153ae57600080fd5b50565b6153ba81614bb9565b81146153c557600080fd5b5056fea2646970667358221220c22ebe97fe34ed17637d701025269300811986f4937ddff42821cfa71801f41d64736f6c63430008040033",
  "linkReferences": {},
  "deployedLinkReferences": {}
}