{
  "_format": "hh-sol-artifact-1",
  "contractName": "UltimateChampionship",
  "sourceName": "contracts/UltimateChampionship.sol",
  "abi": [
    {
      "inputs": [
        {
          "internalType": "string",
          "name": "_name",
          "type": "string"
        },
        {
          "internalType": "string",
          "name": "_symbol",
          "type": "string"
        },
        {
          "internalType": "string",
          "name": "_initBaseUri",
          "type": "string"
        }
      ],
      "stateMutability": "nonpayable",
      "type": "constructor"
    },
    {
      "anonymous": false,
      "inputs": [
        {
          "indexed": true,
          "internalType": "address",
          "name": "owner",
          "type": "address"
        },
        {
          "indexed": true,
          "internalType": "address",
          "name": "approved",
          "type": "address"
        },
        {
          "indexed": true,
          "internalType": "uint256",
          "name": "tokenId",
          "type": "uint256"
        }
      ],
      "name": "Approval",
      "type": "event"
    },
    {
      "anonymous": false,
      "inputs": [
        {
          "indexed": true,
          "internalType": "address",
          "name": "owner",
          "type": "address"
        },
        {
          "indexed": true,
          "internalType": "address",
          "name": "operator",
          "type": "address"
        },
        {
          "indexed": false,
          "internalType": "bool",
          "name": "approved",
          "type": "bool"
        }
      ],
      "name": "ApprovalForAll",
      "type": "event"
    },
    {
      "anonymous": false,
      "inputs": [
        {
          "indexed": true,
          "internalType": "address",
          "name": "previousOwner",
          "type": "address"
        },
        {
          "indexed": true,
          "internalType": "address",
          "name": "newOwner",
          "type": "address"
        }
      ],
      "name": "OwnershipTransferred",
      "type": "event"
    },
    {
      "anonymous": false,
      "inputs": [
        {
          "indexed": true,
          "internalType": "address",
          "name": "from",
          "type": "address"
        },
        {
          "indexed": true,
          "internalType": "address",
          "name": "to",
          "type": "address"
        },
        {
          "indexed": true,
          "internalType": "uint256",
          "name": "tokenId",
          "type": "uint256"
        }
      ],
      "name": "Transfer",
      "type": "event"
    },
    {
      "inputs": [],
      "name": "activateContract",
      "outputs": [],
      "stateMutability": "nonpayable",
      "type": "function"
    },
    {
      "inputs": [],
      "name": "activateWhitelist",
      "outputs": [],
      "stateMutability": "nonpayable",
      "type": "function"
    },
    {
      "inputs": [
        {
          "internalType": "address",
          "name": "adminAddress",
          "type": "address"
        }
      ],
      "name": "addAdmin",
      "outputs": [],
      "stateMutability": "nonpayable",
      "type": "function"
    },
    {
      "inputs": [
        {
          "internalType": "address[]",
          "name": "addresses",
          "type": "address[]"
        }
      ],
      "name": "addToWhitelist",
      "outputs": [],
      "stateMutability": "nonpayable",
      "type": "function"
    },
    {
      "inputs": [
        {
          "internalType": "address",
          "name": "",
          "type": "address"
        }
      ],
      "name": "addressMintedBalance",
      "outputs": [
        {
          "internalType": "uint256",
          "name": "",
          "type": "uint256"
        }
      ],
      "stateMutability": "view",
      "type": "function"
    },
    {
      "inputs": [
        {
          "internalType": "address",
          "name": "to",
          "type": "address"
        },
        {
          "internalType": "uint256",
          "name": "tokenId",
          "type": "uint256"
        }
      ],
      "name": "approve",
      "outputs": [],
      "stateMutability": "nonpayable",
      "type": "function"
    },
    {
      "inputs": [
        {
          "internalType": "address",
          "name": "owner",
          "type": "address"
        }
      ],
      "name": "balanceOf",
      "outputs": [
        {
          "internalType": "uint256",
          "name": "",
          "type": "uint256"
        }
      ],
      "stateMutability": "view",
      "type": "function"
    },
    {
      "inputs": [],
      "name": "baseExtension",
      "outputs": [
        {
          "internalType": "string",
          "name": "",
          "type": "string"
        }
      ],
      "stateMutability": "view",
      "type": "function"
    },
    {
      "inputs": [],
      "name": "baseImageExtension",
      "outputs": [
        {
          "internalType": "string",
          "name": "",
          "type": "string"
        }
      ],
      "stateMutability": "view",
      "type": "function"
    },
    {
      "inputs": [],
      "name": "baseURI",
      "outputs": [
        {
          "internalType": "string",
          "name": "",
          "type": "string"
        }
      ],
      "stateMutability": "view",
      "type": "function"
    },
    {
      "inputs": [],
      "name": "cost",
      "outputs": [
        {
          "internalType": "uint256",
          "name": "",
          "type": "uint256"
        }
      ],
      "stateMutability": "view",
      "type": "function"
    },
    {
      "inputs": [
        {
          "internalType": "uint256",
          "name": "tokenId",
          "type": "uint256"
        }
      ],
      "name": "getApproved",
      "outputs": [
        {
          "internalType": "address",
          "name": "",
          "type": "address"
        }
      ],
      "stateMutability": "view",
      "type": "function"
    },
    {
      "inputs": [
        {
          "internalType": "address",
          "name": "_sendTo",
          "type": "address"
        },
        {
          "internalType": "uint256",
          "name": "_howMany",
          "type": "uint256"
        }
      ],
      "name": "giftNft",
      "outputs": [],
      "stateMutability": "nonpayable",
      "type": "function"
    },
    {
      "inputs": [
        {
          "internalType": "address",
          "name": "owner",
          "type": "address"
        },
        {
          "internalType": "address",
          "name": "operator",
          "type": "address"
        }
      ],
      "name": "isApprovedForAll",
      "outputs": [
        {
          "internalType": "bool",
          "name": "",
          "type": "bool"
        }
      ],
      "stateMutability": "view",
      "type": "function"
    },
    {
      "inputs": [],
      "name": "maxMintAmount",
      "outputs": [
        {
          "internalType": "uint256",
          "name": "",
          "type": "uint256"
        }
      ],
      "stateMutability": "view",
      "type": "function"
    },
    {
      "inputs": [],
      "name": "maxSupply",
      "outputs": [
        {
          "internalType": "uint256",
          "name": "",
          "type": "uint256"
        }
      ],
      "stateMutability": "view",
      "type": "function"
    },
    {
      "inputs": [
        {
          "internalType": "uint256",
          "name": "_maxEnergy",
          "type": "uint256"
        }
      ],
      "name": "mint",
      "outputs": [],
      "stateMutability": "payable",
      "type": "function"
    },
    {
      "inputs": [],
      "name": "name",
      "outputs": [
        {
          "internalType": "string",
          "name": "",
          "type": "string"
        }
      ],
      "stateMutability": "view",
      "type": "function"
    },
    {
      "inputs": [],
      "name": "nftPerAddressLimit",
      "outputs": [
        {
          "internalType": "uint256",
          "name": "",
          "type": "uint256"
        }
      ],
      "stateMutability": "view",
      "type": "function"
    },
    {
      "inputs": [
        {
          "internalType": "address",
          "name": "",
          "type": "address"
        }
      ],
      "name": "onWhitelist",
      "outputs": [
        {
          "internalType": "bool",
          "name": "",
          "type": "bool"
        }
      ],
      "stateMutability": "view",
      "type": "function"
    },
    {
      "inputs": [],
      "name": "owner",
      "outputs": [
        {
          "internalType": "address",
          "name": "",
          "type": "address"
        }
      ],
      "stateMutability": "view",
      "type": "function"
    },
    {
      "inputs": [
        {
          "internalType": "uint256",
          "name": "tokenId",
          "type": "uint256"
        }
      ],
      "name": "ownerOf",
      "outputs": [
        {
          "internalType": "address",
          "name": "",
          "type": "address"
        }
      ],
      "stateMutability": "view",
      "type": "function"
    },
    {
      "inputs": [],
      "name": "pauseContract",
      "outputs": [],
      "stateMutability": "nonpayable",
      "type": "function"
    },
    {
      "inputs": [
        {
          "internalType": "uint256",
          "name": "_maxEnergy",
          "type": "uint256"
        }
      ],
      "name": "presale",
      "outputs": [],
      "stateMutability": "payable",
      "type": "function"
    },
    {
      "inputs": [],
      "name": "presalePrice",
      "outputs": [
        {
          "internalType": "uint256",
          "name": "",
          "type": "uint256"
        }
      ],
      "stateMutability": "view",
      "type": "function"
    },
    {
      "inputs": [],
      "name": "presaleSupply",
      "outputs": [
        {
          "internalType": "uint256",
          "name": "",
          "type": "uint256"
        }
      ],
      "stateMutability": "view",
      "type": "function"
    },
    {
      "inputs": [
        {
          "internalType": "address",
          "name": "adminAddress",
          "type": "address"
        }
      ],
      "name": "removeAdmin",
      "outputs": [],
      "stateMutability": "nonpayable",
      "type": "function"
    },
    {
      "inputs": [
        {
          "internalType": "address[]",
          "name": "addresses",
          "type": "address[]"
        }
      ],
      "name": "removeFromWhitelist",
      "outputs": [],
      "stateMutability": "nonpayable",
      "type": "function"
    },
    {
      "inputs": [],
      "name": "renounceOwnership",
      "outputs": [],
      "stateMutability": "nonpayable",
      "type": "function"
    },
    {
      "inputs": [
        {
          "internalType": "address",
          "name": "from",
          "type": "address"
        },
        {
          "internalType": "address",
          "name": "to",
          "type": "address"
        },
        {
          "internalType": "uint256",
          "name": "tokenId",
          "type": "uint256"
        }
      ],
      "name": "safeTransferFrom",
      "outputs": [],
      "stateMutability": "nonpayable",
      "type": "function"
    },
    {
      "inputs": [
        {
          "internalType": "address",
          "name": "from",
          "type": "address"
        },
        {
          "internalType": "address",
          "name": "to",
          "type": "address"
        },
        {
          "internalType": "uint256",
          "name": "tokenId",
          "type": "uint256"
        },
        {
          "internalType": "bytes",
          "name": "_data",
          "type": "bytes"
        }
      ],
      "name": "safeTransferFrom",
      "outputs": [],
      "stateMutability": "nonpayable",
      "type": "function"
    },
    {
      "inputs": [
        {
          "internalType": "address",
          "name": "operator",
          "type": "address"
        },
        {
          "internalType": "bool",
          "name": "approved",
          "type": "bool"
        }
      ],
      "name": "setApprovalForAll",
      "outputs": [],
      "stateMutability": "nonpayable",
      "type": "function"
    },
    {
      "inputs": [
        {
          "internalType": "string",
          "name": "_newBaseURI",
          "type": "string"
        }
      ],
      "name": "setBaseURI",
      "outputs": [],
      "stateMutability": "nonpayable",
      "type": "function"
    },
    {
      "inputs": [
        {
          "internalType": "uint256",
          "name": "_newCost",
          "type": "uint256"
        }
      ],
      "name": "setCost",
      "outputs": [],
      "stateMutability": "nonpayable",
      "type": "function"
    },
    {
      "inputs": [
        {
          "internalType": "uint256",
          "name": "_newMaxMintAmount",
          "type": "uint256"
        }
      ],
      "name": "setMaxMintAmount",
      "outputs": [],
      "stateMutability": "nonpayable",
      "type": "function"
    },
    {
      "inputs": [
        {
          "internalType": "uint256",
          "name": "_newNftPerAddressLimit",
          "type": "uint256"
        }
      ],
      "name": "setNftPerAddressLimit",
      "outputs": [],
      "stateMutability": "nonpayable",
      "type": "function"
    },
    {
      "inputs": [
        {
          "internalType": "uint256",
          "name": "_newPresalePrice",
          "type": "uint256"
        }
      ],
      "name": "setPresalePrice",
      "outputs": [],
      "stateMutability": "nonpayable",
      "type": "function"
    },
    {
      "inputs": [
        {
          "internalType": "uint256",
          "name": "_newWhitelistMaxMint",
          "type": "uint256"
        }
      ],
      "name": "setWhitelistMaxMint",
      "outputs": [],
      "stateMutability": "nonpayable",
      "type": "function"
    },
    {
      "inputs": [],
      "name": "stopWhitelist",
      "outputs": [],
      "stateMutability": "nonpayable",
      "type": "function"
    },
    {
      "inputs": [
        {
          "internalType": "bytes4",
          "name": "interfaceId",
          "type": "bytes4"
        }
      ],
      "name": "supportsInterface",
      "outputs": [
        {
          "internalType": "bool",
          "name": "",
          "type": "bool"
        }
      ],
      "stateMutability": "view",
      "type": "function"
    },
    {
      "inputs": [],
      "name": "symbol",
      "outputs": [
        {
          "internalType": "string",
          "name": "",
          "type": "string"
        }
      ],
      "stateMutability": "view",
      "type": "function"
    },
    {
      "inputs": [
        {
          "internalType": "uint256",
          "name": "index",
          "type": "uint256"
        }
      ],
      "name": "tokenByIndex",
      "outputs": [
        {
          "internalType": "uint256",
          "name": "",
          "type": "uint256"
        }
      ],
      "stateMutability": "view",
      "type": "function"
    },
    {
      "inputs": [
        {
          "internalType": "address",
          "name": "owner",
          "type": "address"
        },
        {
          "internalType": "uint256",
          "name": "index",
          "type": "uint256"
        }
      ],
      "name": "tokenOfOwnerByIndex",
      "outputs": [
        {
          "internalType": "uint256",
          "name": "",
          "type": "uint256"
        }
      ],
      "stateMutability": "view",
      "type": "function"
    },
    {
      "inputs": [
        {
          "internalType": "uint256",
          "name": "tokenId",
          "type": "uint256"
        }
      ],
      "name": "tokenURI",
      "outputs": [
        {
          "internalType": "string",
          "name": "",
          "type": "string"
        }
      ],
      "stateMutability": "view",
      "type": "function"
    },
    {
      "inputs": [],
      "name": "totalSupply",
      "outputs": [
        {
          "internalType": "uint256",
          "name": "",
          "type": "uint256"
        }
      ],
      "stateMutability": "view",
      "type": "function"
    },
    {
      "inputs": [
        {
          "internalType": "address",
          "name": "from",
          "type": "address"
        },
        {
          "internalType": "address",
          "name": "to",
          "type": "address"
        },
        {
          "internalType": "uint256",
          "name": "tokenId",
          "type": "uint256"
        }
      ],
      "name": "transferFrom",
      "outputs": [],
      "stateMutability": "nonpayable",
      "type": "function"
    },
    {
      "inputs": [
        {
          "internalType": "address",
          "name": "newOwner",
          "type": "address"
        }
      ],
      "name": "transferOwnership",
      "outputs": [],
      "stateMutability": "nonpayable",
      "type": "function"
    },
    {
      "inputs": [
        {
          "internalType": "address",
          "name": "_owner",
          "type": "address"
        }
      ],
      "name": "walletOfOwner",
      "outputs": [
        {
          "internalType": "uint256[]",
          "name": "",
          "type": "uint256[]"
        }
      ],
      "stateMutability": "view",
      "type": "function"
    },
    {
      "inputs": [
        {
          "internalType": "address",
          "name": "",
          "type": "address"
        }
      ],
      "name": "whitelistClaimedBy",
      "outputs": [
        {
          "internalType": "uint256",
          "name": "",
          "type": "uint256"
        }
      ],
      "stateMutability": "view",
      "type": "function"
    },
    {
      "inputs": [],
      "name": "whitelistMaxMint",
      "outputs": [
        {
          "internalType": "uint256",
          "name": "",
          "type": "uint256"
        }
      ],
      "stateMutability": "view",
      "type": "function"
    },
    {
      "inputs": [],
      "name": "withdraw",
      "outputs": [],
      "stateMutability": "payable",
      "type": "function"
    }
  ],
  "bytecode": "0x60806040526001600c60006101000a81548160ff0219169083151502179055506001600c60016101000a81548160ff0219169083151502179055506040518060400160405280600581526020017f2e6a736f6e000000000000000000000000000000000000000000000000000000815250600e908051906020019062000087929190620003be565b506040518060400160405280600481526020017f2e706e6700000000000000000000000000000000000000000000000000000000815250600f9080519060200190620000d5929190620003be565b50651b48eb57e0006011556122b8601255600160135560056014556512309ce5400060155561138860165560056017553480156200011257600080fd5b50604051620062e8380380620062e88339818101604052810190620001389190620004e0565b8282816000908051906020019062000152929190620003be565b5080600190805190602001906200016b929190620003be565b5050506200018e62000182620001bf60201b60201c565b620001c760201b60201c565b6200019f816200028d60201b60201c565b620001b660106200037e60201b62002c961760201c565b50505062000774565b600033905090565b6000600a60009054906101000a900473ffffffffffffffffffffffffffffffffffffffff16905081600a60006101000a81548173ffffffffffffffffffffffffffffffffffffffff021916908373ffffffffffffffffffffffffffffffffffffffff1602179055508173ffffffffffffffffffffffffffffffffffffffff168173ffffffffffffffffffffffffffffffffffffffff167f8be0079c531659141344cd1fd0a4f28419497f9722a3daafe3b4186f6b6457e060405160405180910390a35050565b6200029d6200039460201b60201c565b73ffffffffffffffffffffffffffffffffffffffff163373ffffffffffffffffffffffffffffffffffffffff161480620003205750600b60003373ffffffffffffffffffffffffffffffffffffffff1673ffffffffffffffffffffffffffffffffffffffff16815260200190815260200160002060009054906101000a900460ff165b62000362576040517f08c379a00000000000000000000000000000000000000000000000000000000081526004016200035990620005a8565b60405180910390fd5b80600d90805190602001906200037a929190620003be565b5050565b6001816000016000828254019250508190555050565b6000600a60009054906101000a900473ffffffffffffffffffffffffffffffffffffffff16905090565b828054620003cc9062000670565b90600052602060002090601f016020900481019282620003f057600085556200043c565b82601f106200040b57805160ff19168380011785556200043c565b828001600101855582156200043c579182015b828111156200043b5782518255916020019190600101906200041e565b5b5090506200044b91906200044f565b5090565b5b808211156200046a57600081600090555060010162000450565b5090565b6000620004856200047f84620005f3565b620005ca565b9050828152602081018484840111156200049e57600080fd5b620004ab8482856200063a565b509392505050565b600082601f830112620004c557600080fd5b8151620004d78482602086016200046e565b91505092915050565b600080600060608486031215620004f657600080fd5b600084015167ffffffffffffffff8111156200051157600080fd5b6200051f86828701620004b3565b935050602084015167ffffffffffffffff8111156200053d57600080fd5b6200054b86828701620004b3565b925050604084015167ffffffffffffffff8111156200056957600080fd5b6200057786828701620004b3565b9150509250925092565b60006200059060138362000629565b91506200059d826200074b565b602082019050919050565b60006020820190508181036000830152620005c38162000581565b9050919050565b6000620005d6620005e9565b9050620005e48282620006a6565b919050565b6000604051905090565b600067ffffffffffffffff8211156200061157620006106200070b565b5b6200061c826200073a565b9050602081019050919050565b600082825260208201905092915050565b60005b838110156200065a5780820151818401526020810190506200063d565b838111156200066a576000848401525b50505050565b600060028204905060018216806200068957607f821691505b60208210811415620006a0576200069f620006dc565b5b50919050565b620006b1826200073a565b810181811067ffffffffffffffff82111715620006d357620006d26200070b565b5b80604052505050565b7f4e487b7100000000000000000000000000000000000000000000000000000000600052602260045260246000fd5b7f4e487b7100000000000000000000000000000000000000000000000000000000600052604160045260246000fd5b6000601f19601f8301169050919050565b7f53656e646572206973206e6f742061646d696e00000000000000000000000000600082015250565b615b6480620007846000396000f3fe6080604052600436106102e35760003560e01c80636352211e11610190578063a22cb465116100dc578063d0eb26b011610095578063e6ab14341161006f578063e6ab143414610adf578063e985e9c514610afb578063f2fde38b14610b38578063f3ce256f14610b61576102e3565b8063d0eb26b014610a62578063d5abeb0114610a8b578063e214696314610ab6576102e3565b8063a22cb46514610952578063b3a196e91461097b578063b88d4fde146109a6578063ba7d2c76146109cf578063c6682862146109fa578063c87b56dd14610a25576102e3565b80637f649783116101495780638da5cb5b116101235780638da5cb5b146108c95780638fda356d146108f457806395d89b411461090b578063a0712d6814610936576102e3565b80637f6497831461086057806382346e471461088957806389e877a3146108b2576102e3565b80636352211e146107505780636c0360eb1461078d57806370480275146107b857806370a08231146107e1578063715018a61461081e578063722e141d14610835576102e3565b806323b872dd1161024f57806342842e0e1161020857806344a0d68a116101e257806344a0d68a146106985780634f6ccce7146106c1578063548db174146106fe57806355f804b314610727576102e3565b806342842e0e1461061b578063438b630014610644578063439766ce14610681576102e3565b806323b872dd1461052e5780632f745c5914610557578063333cd5c114610594578063340ee37c146105ab5780633549345e146105e85780633ccfd60b14610611576102e3565b806313faede6116102a157806313faede61461040a5780631785f53c1461043557806318160ddd1461045e57806318cae269146104895780631d608659146104c6578063239c70ae14610503576102e3565b80620e7fa8146102e857806301ffc9a71461031357806306fdde0314610350578063081812fc1461037b578063088a4ed0146103b8578063095ea7b3146103e1575b600080fd5b3480156102f457600080fd5b506102fd610b8c565b60405161030a9190614f94565b60405180910390f35b34801561031f57600080fd5b5061033a600480360381019061033591906143fb565b610b92565b6040516103479190614b97565b60405180910390f35b34801561035c57600080fd5b50610365610c0c565b6040516103729190614bb2565b60405180910390f35b34801561038757600080fd5b506103a2600480360381019061039d919061448e565b610c9e565b6040516103af9190614b0e565b60405180910390f35b3480156103c457600080fd5b506103df60048036038101906103da919061448e565b610d23565b005b3480156103ed57600080fd5b506104086004803603810190610403919061437a565b610df6565b005b34801561041657600080fd5b5061041f610f0e565b60405161042c9190614f94565b60405180910390f35b34801561044157600080fd5b5061045c6004803603810190610457919061420f565b610f14565b005b34801561046a57600080fd5b50610473610feb565b6040516104809190614f94565b60405180910390f35b34801561049557600080fd5b506104b060048036038101906104ab919061420f565b610ff8565b6040516104bd9190614f94565b60405180910390f35b3480156104d257600080fd5b506104ed60048036038101906104e8919061420f565b611010565b6040516104fa9190614b97565b60405180910390f35b34801561050f57600080fd5b50610518611030565b6040516105259190614f94565b60405180910390f35b34801561053a57600080fd5b5061055560048036038101906105509190614274565b611036565b005b34801561056357600080fd5b5061057e6004803603810190610579919061437a565b611096565b60405161058b9190614f94565b60405180910390f35b3480156105a057600080fd5b506105a961113b565b005b3480156105b757600080fd5b506105d260048036038101906105cd919061420f565b611221565b6040516105df9190614f94565b60405180910390f35b3480156105f457600080fd5b5061060f600480360381019061060a919061448e565b611239565b005b61061961130c565b005b34801561062757600080fd5b50610642600480360381019061063d9190614274565b611401565b005b34801561065057600080fd5b5061066b6004803603810190610666919061420f565b611421565b6040516106789190614b75565b60405180910390f35b34801561068d57600080fd5b5061069661151b565b005b3480156106a457600080fd5b506106bf60048036038101906106ba919061448e565b6115b4565b005b3480156106cd57600080fd5b506106e860048036038101906106e3919061448e565b611687565b6040516106f59190614f94565b60405180910390f35b34801561070a57600080fd5b50610725600480360381019061072091906143b6565b61171e565b005b34801561073357600080fd5b5061074e6004803603810190610749919061444d565b6118b2565b005b34801561075c57600080fd5b506107776004803603810190610772919061448e565b611995565b6040516107849190614b0e565b60405180910390f35b34801561079957600080fd5b506107a2611a47565b6040516107af9190614bb2565b60405180910390f35b3480156107c457600080fd5b506107df60048036038101906107da919061420f565b611ad5565b005b3480156107ed57600080fd5b506108086004803603810190610803919061420f565b611bac565b6040516108159190614f94565b60405180910390f35b34801561082a57600080fd5b50610833611c64565b005b34801561084157600080fd5b5061084a611cec565b6040516108579190614f94565b60405180910390f35b34801561086c57600080fd5b50610887600480360381019061088291906143b6565b611cf2565b005b34801561089557600080fd5b506108b060048036038101906108ab919061437a565b611e86565b005b3480156108be57600080fd5b506108c7611fb4565b005b3480156108d557600080fd5b506108de61209a565b6040516108eb9190614b0e565b60405180910390f35b34801561090057600080fd5b506109096120c4565b005b34801561091757600080fd5b5061092061215d565b60405161092d9190614bb2565b60405180910390f35b610950600480360381019061094b919061448e565b6121ef565b005b34801561095e57600080fd5b506109796004803603810190610974919061433e565b6123d1565b005b34801561098757600080fd5b506109906123e7565b60405161099d9190614f94565b60405180910390f35b3480156109b257600080fd5b506109cd60048036038101906109c891906142c3565b6123ed565b005b3480156109db57600080fd5b506109e461244f565b6040516109f19190614f94565b60405180910390f35b348015610a0657600080fd5b50610a0f612455565b604051610a1c9190614bb2565b60405180910390f35b348015610a3157600080fd5b50610a4c6004803603810190610a47919061448e565b6124e3565b604051610a599190614bb2565b60405180910390f35b348015610a6e57600080fd5b50610a896004803603810190610a84919061448e565b6125d1565b005b348015610a9757600080fd5b50610aa06126a4565b604051610aad9190614f94565b60405180910390f35b348015610ac257600080fd5b50610add6004803603810190610ad8919061448e565b6126aa565b005b610af96004803603810190610af4919061448e565b61277d565b005b348015610b0757600080fd5b50610b226004803603810190610b1d9190614238565b612a7c565b604051610b2f9190614b97565b60405180910390f35b348015610b4457600080fd5b50610b5f6004803603810190610b5a919061420f565b612b10565b005b348015610b6d57600080fd5b50610b76612c08565b604051610b839190614bb2565b60405180910390f35b60155481565b60007f780e9d63000000000000000000000000000000000000000000000000000000007bffffffffffffffffffffffffffffffffffffffffffffffffffffffff1916827bffffffffffffffffffffffffffffffffffffffffffffffffffffffff19161480610c055750610c0482612cac565b5b9050919050565b606060008054610c1b90615243565b80601f0160208091040260200160405190810160405280929190818152602001828054610c4790615243565b8015610c945780601f10610c6957610100808354040283529160200191610c94565b820191906000526020600020905b815481529060010190602001808311610c7757829003601f168201915b5050505050905090565b6000610ca982612d8e565b610ce8576040517f08c379a0000000000000000000000000000000000000000000000000000000008152600401610cdf90614e14565b60405180910390fd5b6004600083815260200190815260200160002060009054906101000a900473ffffffffffffffffffffffffffffffffffffffff169050919050565b610d2b61209a565b73ffffffffffffffffffffffffffffffffffffffff163373ffffffffffffffffffffffffffffffffffffffff161480610dad5750600b60003373ffffffffffffffffffffffffffffffffffffffff1673ffffffffffffffffffffffffffffffffffffffff16815260200190815260200160002060009054906101000a900460ff165b610dec576040517f08c379a0000000000000000000000000000000000000000000000000000000008152600401610de390614e54565b60405180910390fd5b8060138190555050565b6000610e0182611995565b90508073ffffffffffffffffffffffffffffffffffffffff168373ffffffffffffffffffffffffffffffffffffffff161415610e72576040517f08c379a0000000000000000000000000000000000000000000000000000000008152600401610e6990614e94565b60405180910390fd5b8073ffffffffffffffffffffffffffffffffffffffff16610e91612dfa565b73ffffffffffffffffffffffffffffffffffffffff161480610ec05750610ebf81610eba612dfa565b612a7c565b5b610eff576040517f08c379a0000000000000000000000000000000000000000000000000000000008152600401610ef690614d34565b60405180910390fd5b610f098383612e02565b505050565b60115481565b610f1c612dfa565b73ffffffffffffffffffffffffffffffffffffffff16610f3a61209a565b73ffffffffffffffffffffffffffffffffffffffff1614610f90576040517f08c379a0000000000000000000000000000000000000000000000000000000008152600401610f8790614e34565b60405180910390fd5b6000600b60008373ffffffffffffffffffffffffffffffffffffffff1673ffffffffffffffffffffffffffffffffffffffff16815260200190815260200160002060006101000a81548160ff02191690831515021790555050565b6000600880549050905090565b60196020528060005260406000206000915090505481565b601a6020528060005260406000206000915054906101000a900460ff1681565b60135481565b611047611041612dfa565b82612ebb565b611086576040517f08c379a000000000000000000000000000000000000000000000000000000000815260040161107d90614ef4565b60405180910390fd5b611091838383612f99565b505050565b60006110a183611bac565b82106110e2576040517f08c379a00000000000000000000000000000000000000000000000000000000081526004016110d990614c14565b60405180910390fd5b600660008473ffffffffffffffffffffffffffffffffffffffff1673ffffffffffffffffffffffffffffffffffffffff168152602001908152602001600020600083815260200190815260200160002054905092915050565b61114361209a565b73ffffffffffffffffffffffffffffffffffffffff163373ffffffffffffffffffffffffffffffffffffffff1614806111c55750600b60003373ffffffffffffffffffffffffffffffffffffffff1673ffffffffffffffffffffffffffffffffffffffff16815260200190815260200160002060009054906101000a900460ff165b611204576040517f08c379a00000000000000000000000000000000000000000000000000000000081526004016111fb90614e54565b60405180910390fd5b6000600c60016101000a81548160ff021916908315150217905550565b601b6020528060005260406000206000915090505481565b61124161209a565b73ffffffffffffffffffffffffffffffffffffffff163373ffffffffffffffffffffffffffffffffffffffff1614806112c35750600b60003373ffffffffffffffffffffffffffffffffffffffff1673ffffffffffffffffffffffffffffffffffffffff16815260200190815260200160002060009054906101000a900460ff165b611302576040517f08c379a00000000000000000000000000000000000000000000000000000000081526004016112f990614e54565b60405180910390fd5b8060158190555050565b611314612dfa565b73ffffffffffffffffffffffffffffffffffffffff1661133261209a565b73ffffffffffffffffffffffffffffffffffffffff1614611388576040517f08c379a000000000000000000000000000000000000000000000000000000000815260040161137f90614e34565b60405180910390fd5b60003373ffffffffffffffffffffffffffffffffffffffff16476040516113ae90614af9565b60006040518083038185875af1925050503d80600081146113eb576040519150601f19603f3d011682016040523d82523d6000602084013e6113f0565b606091505b50509050806113fe57600080fd5b50565b61141c838383604051806020016040528060008152506123ed565b505050565b6060600061142e83611bac565b905060008167ffffffffffffffff811115611472577f4e487b7100000000000000000000000000000000000000000000000000000000600052604160045260246000fd5b6040519080825280602002602001820160405280156114a05781602001602082028036833780820191505090505b50905060005b82811015611510576114b88582611096565b8282815181106114f1577f4e487b7100000000000000000000000000000000000000000000000000000000600052603260045260246000fd5b6020026020010181815250508080611508906152a6565b9150506114a6565b508092505050919050565b611523612dfa565b73ffffffffffffffffffffffffffffffffffffffff1661154161209a565b73ffffffffffffffffffffffffffffffffffffffff1614611597576040517f08c379a000000000000000000000000000000000000000000000000000000000815260040161158e90614e34565b60405180910390fd5b6000600c60006101000a81548160ff021916908315150217905550565b6115bc61209a565b73ffffffffffffffffffffffffffffffffffffffff163373ffffffffffffffffffffffffffffffffffffffff16148061163e5750600b60003373ffffffffffffffffffffffffffffffffffffffff1673ffffffffffffffffffffffffffffffffffffffff16815260200190815260200160002060009054906101000a900460ff165b61167d576040517f08c379a000000000000000000000000000000000000000000000000000000000815260040161167490614e54565b60405180910390fd5b8060118190555050565b6000611691610feb565b82106116d2576040517f08c379a00000000000000000000000000000000000000000000000000000000081526004016116c990614f54565b60405180910390fd5b6008828154811061170c577f4e487b7100000000000000000000000000000000000000000000000000000000600052603260045260246000fd5b90600052602060002001549050919050565b61172661209a565b73ffffffffffffffffffffffffffffffffffffffff163373ffffffffffffffffffffffffffffffffffffffff1614806117a85750600b60003373ffffffffffffffffffffffffffffffffffffffff1673ffffffffffffffffffffffffffffffffffffffff16815260200190815260200160002060009054906101000a900460ff165b6117e7576040517f08c379a00000000000000000000000000000000000000000000000000000000081526004016117de90614e54565b60405180910390fd5b60005b828290508110156118ad576000601a6000858585818110611834577f4e487b7100000000000000000000000000000000000000000000000000000000600052603260045260246000fd5b9050602002016020810190611849919061420f565b73ffffffffffffffffffffffffffffffffffffffff1673ffffffffffffffffffffffffffffffffffffffff16815260200190815260200160002060006101000a81548160ff02191690831515021790555080806118a5906152a6565b9150506117ea565b505050565b6118ba61209a565b73ffffffffffffffffffffffffffffffffffffffff163373ffffffffffffffffffffffffffffffffffffffff16148061193c5750600b60003373ffffffffffffffffffffffffffffffffffffffff1673ffffffffffffffffffffffffffffffffffffffff16815260200190815260200160002060009054906101000a900460ff165b61197b576040517f08c379a000000000000000000000000000000000000000000000000000000000815260040161197290614e54565b60405180910390fd5b80600d9080519060200190611991929190613fe9565b5050565b6000806002600084815260200190815260200160002060009054906101000a900473ffffffffffffffffffffffffffffffffffffffff169050600073ffffffffffffffffffffffffffffffffffffffff168173ffffffffffffffffffffffffffffffffffffffff161415611a3e576040517f08c379a0000000000000000000000000000000000000000000000000000000008152600401611a3590614d74565b60405180910390fd5b80915050919050565b600d8054611a5490615243565b80601f0160208091040260200160405190810160405280929190818152602001828054611a8090615243565b8015611acd5780601f10611aa257610100808354040283529160200191611acd565b820191906000526020600020905b815481529060010190602001808311611ab057829003601f168201915b505050505081565b611add612dfa565b73ffffffffffffffffffffffffffffffffffffffff16611afb61209a565b73ffffffffffffffffffffffffffffffffffffffff1614611b51576040517f08c379a0000000000000000000000000000000000000000000000000000000008152600401611b4890614e34565b60405180910390fd5b6001600b60008373ffffffffffffffffffffffffffffffffffffffff1673ffffffffffffffffffffffffffffffffffffffff16815260200190815260200160002060006101000a81548160ff02191690831515021790555050565b60008073ffffffffffffffffffffffffffffffffffffffff168273ffffffffffffffffffffffffffffffffffffffff161415611c1d576040517f08c379a0000000000000000000000000000000000000000000000000000000008152600401611c1490614d54565b60405180910390fd5b600360008373ffffffffffffffffffffffffffffffffffffffff1673ffffffffffffffffffffffffffffffffffffffff168152602001908152602001600020549050919050565b611c6c612dfa565b73ffffffffffffffffffffffffffffffffffffffff16611c8a61209a565b73ffffffffffffffffffffffffffffffffffffffff1614611ce0576040517f08c379a0000000000000000000000000000000000000000000000000000000008152600401611cd790614e34565b60405180910390fd5b611cea6000613200565b565b60175481565b611cfa61209a565b73ffffffffffffffffffffffffffffffffffffffff163373ffffffffffffffffffffffffffffffffffffffff161480611d7c5750600b60003373ffffffffffffffffffffffffffffffffffffffff1673ffffffffffffffffffffffffffffffffffffffff16815260200190815260200160002060009054906101000a900460ff165b611dbb576040517f08c379a0000000000000000000000000000000000000000000000000000000008152600401611db290614e54565b60405180910390fd5b60005b82829050811015611e81576001601a6000858585818110611e08577f4e487b7100000000000000000000000000000000000000000000000000000000600052603260045260246000fd5b9050602002016020810190611e1d919061420f565b73ffffffffffffffffffffffffffffffffffffffff1673ffffffffffffffffffffffffffffffffffffffff16815260200190815260200160002060006101000a81548160ff0219169083151502179055508080611e79906152a6565b915050611dbe565b505050565b611e8e61209a565b73ffffffffffffffffffffffffffffffffffffffff163373ffffffffffffffffffffffffffffffffffffffff161480611f105750600b60003373ffffffffffffffffffffffffffffffffffffffff1673ffffffffffffffffffffffffffffffffffffffff16815260200190815260200160002060009054906101000a900460ff165b611f4f576040517f08c379a0000000000000000000000000000000000000000000000000000000008152600401611f4690614e54565b60405180910390fd5b60125481611f5b610feb565b611f6591906150d2565b1115611fa6576040517f08c379a0000000000000000000000000000000000000000000000000000000008152600401611f9d90614db4565b60405180910390fd5b611fb082826132c6565b5050565b611fbc61209a565b73ffffffffffffffffffffffffffffffffffffffff163373ffffffffffffffffffffffffffffffffffffffff16148061203e5750600b60003373ffffffffffffffffffffffffffffffffffffffff1673ffffffffffffffffffffffffffffffffffffffff16815260200190815260200160002060009054906101000a900460ff165b61207d576040517f08c379a000000000000000000000000000000000000000000000000000000000815260040161207490614e54565b60405180910390fd5b6001600c60016101000a81548160ff021916908315150217905550565b6000600a60009054906101000a900473ffffffffffffffffffffffffffffffffffffffff16905090565b6120cc612dfa565b73ffffffffffffffffffffffffffffffffffffffff166120ea61209a565b73ffffffffffffffffffffffffffffffffffffffff1614612140576040517f08c379a000000000000000000000000000000000000000000000000000000000815260040161213790614e34565b60405180910390fd5b6000600c60006101000a81548160ff021916908315150217905550565b60606001805461216c90615243565b80601f016020809104026020016040519081016040528092919081815260200182805461219890615243565b80156121e55780601f106121ba576101008083540402835291602001916121e5565b820191906000526020600020905b8154815290600101906020018083116121c857829003601f168201915b5050505050905090565b600c60009054906101000a900460ff1661223e576040517f08c379a000000000000000000000000000000000000000000000000000000000815260040161223590614df4565b60405180910390fd5b6000612248610feb565b905060125460018261225a91906150d2565b111561229b576040517f08c379a000000000000000000000000000000000000000000000000000000000815260040161229290614d94565b60405180910390fd5b6011543410156122e0576040517f08c379a00000000000000000000000000000000000000000000000000000000081526004016122d790614ed4565b60405180910390fd5b6014546122ec33611bac565b1061232c576040517f08c379a000000000000000000000000000000000000000000000000000000000815260040161232390614f14565b60405180910390fd5b600061233860106132e4565b905060006040518060800160405280838152602001600081526020016005815260200185815250905060188190806001815401808255809150506001900390600052602060002090600402016000909190919091506000820151816000015560208201518160010155604082015181600201556060820151816003015550506123c133836132c6565b6123cb6010612c96565b50505050565b6123e36123dc612dfa565b83836132f2565b5050565b60165481565b6123fe6123f8612dfa565b83612ebb565b61243d576040517f08c379a000000000000000000000000000000000000000000000000000000000815260040161243490614ef4565b60405180910390fd5b6124498484848461345f565b50505050565b60145481565b600e805461246290615243565b80601f016020809104026020016040519081016040528092919081815260200182805461248e90615243565b80156124db5780601f106124b0576101008083540402835291602001916124db565b820191906000526020600020905b8154815290600101906020018083116124be57829003601f168201915b505050505081565b60606124ee82612d8e565b61252d576040517f08c379a000000000000000000000000000000000000000000000000000000000815260040161252490614e74565b60405180910390fd5b60006125376134bb565b9050600081511161257d576040517f08c379a000000000000000000000000000000000000000000000000000000000815260040161257490614bd4565b60405180910390fd5b600081511161259b57604051806020016040528060008152506125c9565b806125a58461354d565b600e6040516020016125b993929190614ac8565b6040516020818303038152906040525b915050919050565b6125d961209a565b73ffffffffffffffffffffffffffffffffffffffff163373ffffffffffffffffffffffffffffffffffffffff16148061265b5750600b60003373ffffffffffffffffffffffffffffffffffffffff1673ffffffffffffffffffffffffffffffffffffffff16815260200190815260200160002060009054906101000a900460ff165b61269a576040517f08c379a000000000000000000000000000000000000000000000000000000000815260040161269190614e54565b60405180910390fd5b8060148190555050565b60125481565b6126b261209a565b73ffffffffffffffffffffffffffffffffffffffff163373ffffffffffffffffffffffffffffffffffffffff1614806127345750600b60003373ffffffffffffffffffffffffffffffffffffffff1673ffffffffffffffffffffffffffffffffffffffff16815260200190815260200160002060009054906101000a900460ff165b612773576040517f08c379a000000000000000000000000000000000000000000000000000000000815260040161276a90614e54565b60405180910390fd5b8060178190555050565b600c60019054906101000a900460ff166127cc576040517f08c379a00000000000000000000000000000000000000000000000000000000081526004016127c390614bf4565b60405180910390fd5b60006127d6610feb565b905060165481111561281d576040517f08c379a000000000000000000000000000000000000000000000000000000000815260040161281490614eb4565b60405180910390fd5b601a60003373ffffffffffffffffffffffffffffffffffffffff1673ffffffffffffffffffffffffffffffffffffffff16815260200190815260200160002060009054906101000a900460ff166128a9576040517f08c379a00000000000000000000000000000000000000000000000000000000081526004016128a090614cf4565b60405180910390fd5b601754601354601b60003373ffffffffffffffffffffffffffffffffffffffff1673ffffffffffffffffffffffffffffffffffffffff168152602001908152602001600020546128f991906150d2565b111561293a576040517f08c379a000000000000000000000000000000000000000000000000000000000815260040161293190614f74565b60405180910390fd5b60155434101561297f576040517f08c379a000000000000000000000000000000000000000000000000000000000815260040161297690614f34565b60405180910390fd5b600061298b60106132e4565b90506000604051806080016040528083815260200160008152602001600581526020018581525090506018819080600181540180825580915050600190039060005260206000209060040201600090919091909150600082015181600001556020820151816001015560408201518160020155606082015181600301555050601354601b60003373ffffffffffffffffffffffffffffffffffffffff1673ffffffffffffffffffffffffffffffffffffffff1681526020019081526020016000206000828254612a5b91906150d2565b92505081905550612a6c33836132c6565b612a766010612c96565b50505050565b6000600560008473ffffffffffffffffffffffffffffffffffffffff1673ffffffffffffffffffffffffffffffffffffffff16815260200190815260200160002060008373ffffffffffffffffffffffffffffffffffffffff1673ffffffffffffffffffffffffffffffffffffffff16815260200190815260200160002060009054906101000a900460ff16905092915050565b612b18612dfa565b73ffffffffffffffffffffffffffffffffffffffff16612b3661209a565b73ffffffffffffffffffffffffffffffffffffffff1614612b8c576040517f08c379a0000000000000000000000000000000000000000000000000000000008152600401612b8390614e34565b60405180910390fd5b600073ffffffffffffffffffffffffffffffffffffffff168173ffffffffffffffffffffffffffffffffffffffff161415612bfc576040517f08c379a0000000000000000000000000000000000000000000000000000000008152600401612bf390614c54565b60405180910390fd5b612c0581613200565b50565b600f8054612c1590615243565b80601f0160208091040260200160405190810160405280929190818152602001828054612c4190615243565b8015612c8e5780601f10612c6357610100808354040283529160200191612c8e565b820191906000526020600020905b815481529060010190602001808311612c7157829003601f168201915b505050505081565b6001816000016000828254019250508190555050565b60007f80ac58cd000000000000000000000000000000000000000000000000000000007bffffffffffffffffffffffffffffffffffffffffffffffffffffffff1916827bffffffffffffffffffffffffffffffffffffffffffffffffffffffff19161480612d7757507f5b5e139f000000000000000000000000000000000000000000000000000000007bffffffffffffffffffffffffffffffffffffffffffffffffffffffff1916827bffffffffffffffffffffffffffffffffffffffffffffffffffffffff1916145b80612d875750612d86826136fa565b5b9050919050565b60008073ffffffffffffffffffffffffffffffffffffffff166002600084815260200190815260200160002060009054906101000a900473ffffffffffffffffffffffffffffffffffffffff1673ffffffffffffffffffffffffffffffffffffffff1614159050919050565b600033905090565b816004600083815260200190815260200160002060006101000a81548173ffffffffffffffffffffffffffffffffffffffff021916908373ffffffffffffffffffffffffffffffffffffffff160217905550808273ffffffffffffffffffffffffffffffffffffffff16612e7583611995565b73ffffffffffffffffffffffffffffffffffffffff167f8c5be1e5ebec7d5bd14f71427d1e84f3dd0314c0f7b2291e5b200ac8c7c3b92560405160405180910390a45050565b6000612ec682612d8e565b612f05576040517f08c379a0000000000000000000000000000000000000000000000000000000008152600401612efc90614d14565b60405180910390fd5b6000612f1083611995565b90508073ffffffffffffffffffffffffffffffffffffffff168473ffffffffffffffffffffffffffffffffffffffff161480612f7f57508373ffffffffffffffffffffffffffffffffffffffff16612f6784610c9e565b73ffffffffffffffffffffffffffffffffffffffff16145b80612f905750612f8f8185612a7c565b5b91505092915050565b8273ffffffffffffffffffffffffffffffffffffffff16612fb982611995565b73ffffffffffffffffffffffffffffffffffffffff161461300f576040517f08c379a000000000000000000000000000000000000000000000000000000000815260040161300690614c74565b60405180910390fd5b600073ffffffffffffffffffffffffffffffffffffffff168273ffffffffffffffffffffffffffffffffffffffff16141561307f576040517f08c379a000000000000000000000000000000000000000000000000000000000815260040161307690614cb4565b60405180910390fd5b61308a838383613764565b613095600082612e02565b6001600360008573ffffffffffffffffffffffffffffffffffffffff1673ffffffffffffffffffffffffffffffffffffffff16815260200190815260200160002060008282546130e59190615159565b925050819055506001600360008473ffffffffffffffffffffffffffffffffffffffff1673ffffffffffffffffffffffffffffffffffffffff168152602001908152602001600020600082825461313c91906150d2565b92505081905550816002600083815260200190815260200160002060006101000a81548173ffffffffffffffffffffffffffffffffffffffff021916908373ffffffffffffffffffffffffffffffffffffffff160217905550808273ffffffffffffffffffffffffffffffffffffffff168473ffffffffffffffffffffffffffffffffffffffff167fddf252ad1be2c89b69c2b068fc378daa952ba7f163c4a11628f55a4df523b3ef60405160405180910390a46131fb838383613878565b505050565b6000600a60009054906101000a900473ffffffffffffffffffffffffffffffffffffffff16905081600a60006101000a81548173ffffffffffffffffffffffffffffffffffffffff021916908373ffffffffffffffffffffffffffffffffffffffff1602179055508173ffffffffffffffffffffffffffffffffffffffff168173ffffffffffffffffffffffffffffffffffffffff167f8be0079c531659141344cd1fd0a4f28419497f9722a3daafe3b4186f6b6457e060405160405180910390a35050565b6132e082826040518060200160405280600081525061387d565b5050565b600081600001549050919050565b8173ffffffffffffffffffffffffffffffffffffffff168373ffffffffffffffffffffffffffffffffffffffff161415613361576040517f08c379a000000000000000000000000000000000000000000000000000000000815260040161335890614cd4565b60405180910390fd5b80600560008573ffffffffffffffffffffffffffffffffffffffff1673ffffffffffffffffffffffffffffffffffffffff16815260200190815260200160002060008473ffffffffffffffffffffffffffffffffffffffff1673ffffffffffffffffffffffffffffffffffffffff16815260200190815260200160002060006101000a81548160ff0219169083151502179055508173ffffffffffffffffffffffffffffffffffffffff168373ffffffffffffffffffffffffffffffffffffffff167f17307eab39ab6107e8899845ad3d59bd9653f200f220920489ca2b5937696c31836040516134529190614b97565b60405180910390a3505050565b61346a848484612f99565b613476848484846138d8565b6134b5576040517f08c379a00000000000000000000000000000000000000000000000000000000081526004016134ac90614c34565b60405180910390fd5b50505050565b6060600d80546134ca90615243565b80601f01602080910402602001604051908101604052809291908181526020018280546134f690615243565b80156135435780601f1061351857610100808354040283529160200191613543565b820191906000526020600020905b81548152906001019060200180831161352657829003601f168201915b5050505050905090565b60606000821415613595576040518060400160405280600181526020017f300000000000000000000000000000000000000000000000000000000000000081525090506136f5565b600082905060005b600082146135c75780806135b0906152a6565b915050600a826135c09190615128565b915061359d565b60008167ffffffffffffffff811115613609577f4e487b7100000000000000000000000000000000000000000000000000000000600052604160045260246000fd5b6040519080825280601f01601f19166020018201604052801561363b5781602001600182028036833780820191505090505b5090505b600085146136ee576001826136549190615159565b9150600a8561366391906152ef565b603061366f91906150d2565b60f81b8183815181106136ab577f4e487b7100000000000000000000000000000000000000000000000000000000600052603260045260246000fd5b60200101907effffffffffffffffffffffffffffffffffffffffffffffffffffffffffffff1916908160001a905350600a856136e79190615128565b945061363f565b8093505050505b919050565b60007f01ffc9a7000000000000000000000000000000000000000000000000000000007bffffffffffffffffffffffffffffffffffffffffffffffffffffffff1916827bffffffffffffffffffffffffffffffffffffffffffffffffffffffff1916149050919050565b61376f838383613a6f565b600073ffffffffffffffffffffffffffffffffffffffff168373ffffffffffffffffffffffffffffffffffffffff1614156137b2576137ad81613a74565b6137f1565b8173ffffffffffffffffffffffffffffffffffffffff168373ffffffffffffffffffffffffffffffffffffffff16146137f0576137ef8382613abd565b5b5b600073ffffffffffffffffffffffffffffffffffffffff168273ffffffffffffffffffffffffffffffffffffffff1614156138345761382f81613c2a565b613873565b8273ffffffffffffffffffffffffffffffffffffffff168273ffffffffffffffffffffffffffffffffffffffff1614613872576138718282613d6d565b5b5b505050565b505050565b6138878383613dec565b61389460008484846138d8565b6138d3576040517f08c379a00000000000000000000000000000000000000000000000000000000081526004016138ca90614c34565b60405180910390fd5b505050565b60006138f98473ffffffffffffffffffffffffffffffffffffffff16613fc6565b15613a62578373ffffffffffffffffffffffffffffffffffffffff1663150b7a02613922612dfa565b8786866040518563ffffffff1660e01b81526004016139449493929190614b29565b602060405180830381600087803b15801561395e57600080fd5b505af192505050801561398f57506040513d601f19601f8201168201806040525081019061398c9190614424565b60015b613a12573d80600081146139bf576040519150601f19603f3d011682016040523d82523d6000602084013e6139c4565b606091505b50600081511415613a0a576040517f08c379a0000000000000000000000000000000000000000000000000000000008152600401613a0190614c34565b60405180910390fd5b805181602001fd5b63150b7a0260e01b7bffffffffffffffffffffffffffffffffffffffffffffffffffffffff1916817bffffffffffffffffffffffffffffffffffffffffffffffffffffffff191614915050613a67565b600190505b949350505050565b505050565b6008805490506009600083815260200190815260200160002081905550600881908060018154018082558091505060019003906000526020600020016000909190919091505550565b60006001613aca84611bac565b613ad49190615159565b9050600060076000848152602001908152602001600020549050818114613bb9576000600660008673ffffffffffffffffffffffffffffffffffffffff1673ffffffffffffffffffffffffffffffffffffffff168152602001908152602001600020600084815260200190815260200160002054905080600660008773ffffffffffffffffffffffffffffffffffffffff1673ffffffffffffffffffffffffffffffffffffffff168152602001908152602001600020600084815260200190815260200160002081905550816007600083815260200190815260200160002081905550505b6007600084815260200190815260200160002060009055600660008573ffffffffffffffffffffffffffffffffffffffff1673ffffffffffffffffffffffffffffffffffffffff16815260200190815260200160002060008381526020019081526020016000206000905550505050565b60006001600880549050613c3e9190615159565b9050600060096000848152602001908152602001600020549050600060088381548110613c94577f4e487b7100000000000000000000000000000000000000000000000000000000600052603260045260246000fd5b906000526020600020015490508060088381548110613cdc577f4e487b7100000000000000000000000000000000000000000000000000000000600052603260045260246000fd5b906000526020600020018190555081600960008381526020019081526020016000208190555060096000858152602001908152602001600020600090556008805480613d51577f4e487b7100000000000000000000000000000000000000000000000000000000600052603160045260246000fd5b6001900381819060005260206000200160009055905550505050565b6000613d7883611bac565b905081600660008573ffffffffffffffffffffffffffffffffffffffff1673ffffffffffffffffffffffffffffffffffffffff168152602001908152602001600020600083815260200190815260200160002081905550806007600084815260200190815260200160002081905550505050565b600073ffffffffffffffffffffffffffffffffffffffff168273ffffffffffffffffffffffffffffffffffffffff161415613e5c576040517f08c379a0000000000000000000000000000000000000000000000000000000008152600401613e5390614dd4565b60405180910390fd5b613e6581612d8e565b15613ea5576040517f08c379a0000000000000000000000000000000000000000000000000000000008152600401613e9c90614c94565b60405180910390fd5b613eb160008383613764565b6001600360008473ffffffffffffffffffffffffffffffffffffffff1673ffffffffffffffffffffffffffffffffffffffff1681526020019081526020016000206000828254613f0191906150d2565b92505081905550816002600083815260200190815260200160002060006101000a81548173ffffffffffffffffffffffffffffffffffffffff021916908373ffffffffffffffffffffffffffffffffffffffff160217905550808273ffffffffffffffffffffffffffffffffffffffff16600073ffffffffffffffffffffffffffffffffffffffff167fddf252ad1be2c89b69c2b068fc378daa952ba7f163c4a11628f55a4df523b3ef60405160405180910390a4613fc260008383613878565b5050565b6000808273ffffffffffffffffffffffffffffffffffffffff163b119050919050565b828054613ff590615243565b90600052602060002090601f016020900481019282614017576000855561405e565b82601f1061403057805160ff191683800117855561405e565b8280016001018555821561405e579182015b8281111561405d578251825591602001919060010190614042565b5b50905061406b919061406f565b5090565b5b80821115614088576000816000905550600101614070565b5090565b600061409f61409a84614fd4565b614faf565b9050828152602081018484840111156140b757600080fd5b6140c2848285615201565b509392505050565b60006140dd6140d884615005565b614faf565b9050828152602081018484840111156140f557600080fd5b614100848285615201565b509392505050565b60008135905061411781615ad2565b92915050565b60008083601f84011261412f57600080fd5b8235905067ffffffffffffffff81111561414857600080fd5b60208301915083602082028301111561416057600080fd5b9250929050565b60008135905061417681615ae9565b92915050565b60008135905061418b81615b00565b92915050565b6000815190506141a081615b00565b92915050565b600082601f8301126141b757600080fd5b81356141c784826020860161408c565b91505092915050565b600082601f8301126141e157600080fd5b81356141f18482602086016140ca565b91505092915050565b60008135905061420981615b17565b92915050565b60006020828403121561422157600080fd5b600061422f84828501614108565b91505092915050565b6000806040838503121561424b57600080fd5b600061425985828601614108565b925050602061426a85828601614108565b9150509250929050565b60008060006060848603121561428957600080fd5b600061429786828701614108565b93505060206142a886828701614108565b92505060406142b9868287016141fa565b9150509250925092565b600080600080608085870312156142d957600080fd5b60006142e787828801614108565b94505060206142f887828801614108565b9350506040614309878288016141fa565b925050606085013567ffffffffffffffff81111561432657600080fd5b614332878288016141a6565b91505092959194509250565b6000806040838503121561435157600080fd5b600061435f85828601614108565b925050602061437085828601614167565b9150509250929050565b6000806040838503121561438d57600080fd5b600061439b85828601614108565b92505060206143ac858286016141fa565b9150509250929050565b600080602083850312156143c957600080fd5b600083013567ffffffffffffffff8111156143e357600080fd5b6143ef8582860161411d565b92509250509250929050565b60006020828403121561440d57600080fd5b600061441b8482850161417c565b91505092915050565b60006020828403121561443657600080fd5b600061444484828501614191565b91505092915050565b60006020828403121561445f57600080fd5b600082013567ffffffffffffffff81111561447957600080fd5b614485848285016141d0565b91505092915050565b6000602082840312156144a057600080fd5b60006144ae848285016141fa565b91505092915050565b60006144c38383614aaa565b60208301905092915050565b6144d88161518d565b82525050565b60006144e98261505b565b6144f38185615089565b93506144fe83615036565b8060005b8381101561452f57815161451688826144b7565b97506145218361507c565b925050600181019050614502565b5085935050505092915050565b6145458161519f565b82525050565b600061455682615066565b614560818561509a565b9350614570818560208601615210565b614579816153dc565b840191505092915050565b600061458f82615071565b61459981856150b6565b93506145a9818560208601615210565b6145b2816153dc565b840191505092915050565b60006145c882615071565b6145d281856150c7565b93506145e2818560208601615210565b80840191505092915050565b600081546145fb81615243565b61460581866150c7565b94506001821660008114614620576001811461463157614664565b60ff19831686528186019350614664565b61463a85615046565b60005b8381101561465c5781548189015260018201915060208101905061463d565b838801955050505b50505092915050565b600061467a6014836150b6565b9150614685826153ed565b602082019050919050565b600061469d6017836150b6565b91506146a882615416565b602082019050919050565b60006146c0602b836150b6565b91506146cb8261543f565b604082019050919050565b60006146e36032836150b6565b91506146ee8261548e565b604082019050919050565b60006147066026836150b6565b9150614711826154dd565b604082019050919050565b60006147296025836150b6565b91506147348261552c565b604082019050919050565b600061474c601c836150b6565b91506147578261557b565b602082019050919050565b600061476f6024836150b6565b915061477a826155a4565b604082019050919050565b60006147926019836150b6565b915061479d826155f3565b602082019050919050565b60006147b56018836150b6565b91506147c08261561c565b602082019050919050565b60006147d8602c836150b6565b91506147e382615645565b604082019050919050565b60006147fb6038836150b6565b915061480682615694565b604082019050919050565b600061481e602a836150b6565b9150614829826156e3565b604082019050919050565b60006148416029836150b6565b915061484c82615732565b604082019050919050565b60006148646016836150b6565b915061486f82615781565b602082019050919050565b60006148876016836150b6565b9150614892826157aa565b602082019050919050565b60006148aa6020836150b6565b91506148b5826157d3565b602082019050919050565b60006148cd6016836150b6565b91506148d8826157fc565b602082019050919050565b60006148f0602c836150b6565b91506148fb82615825565b604082019050919050565b60006149136020836150b6565b915061491e82615874565b602082019050919050565b60006149366013836150b6565b91506149418261589d565b602082019050919050565b6000614959602f836150b6565b9150614964826158c6565b604082019050919050565b600061497c6021836150b6565b915061498782615915565b604082019050919050565b600061499f6014836150b6565b91506149aa82615964565b602082019050919050565b60006149c26000836150ab565b91506149cd8261598d565b600082019050919050565b60006149e56012836150b6565b91506149f082615990565b602082019050919050565b6000614a086031836150b6565b9150614a13826159b9565b604082019050919050565b6000614a2b601b836150b6565b9150614a3682615a08565b602082019050919050565b6000614a4e6015836150b6565b9150614a5982615a31565b602082019050919050565b6000614a71602c836150b6565b9150614a7c82615a5a565b604082019050919050565b6000614a94601c836150b6565b9150614a9f82615aa9565b602082019050919050565b614ab3816151f7565b82525050565b614ac2816151f7565b82525050565b6000614ad482866145bd565b9150614ae082856145bd565b9150614aec82846145ee565b9150819050949350505050565b6000614b04826149b5565b9150819050919050565b6000602082019050614b2360008301846144cf565b92915050565b6000608082019050614b3e60008301876144cf565b614b4b60208301866144cf565b614b586040830185614ab9565b8181036060830152614b6a818461454b565b905095945050505050565b60006020820190508181036000830152614b8f81846144de565b905092915050565b6000602082019050614bac600083018461453c565b92915050565b60006020820190508181036000830152614bcc8184614584565b905092915050565b60006020820190508181036000830152614bed8161466d565b9050919050565b60006020820190508181036000830152614c0d81614690565b9050919050565b60006020820190508181036000830152614c2d816146b3565b9050919050565b60006020820190508181036000830152614c4d816146d6565b9050919050565b60006020820190508181036000830152614c6d816146f9565b9050919050565b60006020820190508181036000830152614c8d8161471c565b9050919050565b60006020820190508181036000830152614cad8161473f565b9050919050565b60006020820190508181036000830152614ccd81614762565b9050919050565b60006020820190508181036000830152614ced81614785565b9050919050565b60006020820190508181036000830152614d0d816147a8565b9050919050565b60006020820190508181036000830152614d2d816147cb565b9050919050565b60006020820190508181036000830152614d4d816147ee565b9050919050565b60006020820190508181036000830152614d6d81614811565b9050919050565b60006020820190508181036000830152614d8d81614834565b9050919050565b60006020820190508181036000830152614dad81614857565b9050919050565b60006020820190508181036000830152614dcd8161487a565b9050919050565b60006020820190508181036000830152614ded8161489d565b9050919050565b60006020820190508181036000830152614e0d816148c0565b9050919050565b60006020820190508181036000830152614e2d816148e3565b9050919050565b60006020820190508181036000830152614e4d81614906565b9050919050565b60006020820190508181036000830152614e6d81614929565b9050919050565b60006020820190508181036000830152614e8d8161494c565b9050919050565b60006020820190508181036000830152614ead8161496f565b9050919050565b60006020820190508181036000830152614ecd81614992565b9050919050565b60006020820190508181036000830152614eed816149d8565b9050919050565b60006020820190508181036000830152614f0d816149fb565b9050919050565b60006020820190508181036000830152614f2d81614a1e565b9050919050565b60006020820190508181036000830152614f4d81614a41565b9050919050565b60006020820190508181036000830152614f6d81614a64565b9050919050565b60006020820190508181036000830152614f8d81614a87565b9050919050565b6000602082019050614fa96000830184614ab9565b92915050565b6000614fb9614fca565b9050614fc58282615275565b919050565b6000604051905090565b600067ffffffffffffffff821115614fef57614fee6153ad565b5b614ff8826153dc565b9050602081019050919050565b600067ffffffffffffffff8211156150205761501f6153ad565b5b615029826153dc565b9050602081019050919050565b6000819050602082019050919050565b60008190508160005260206000209050919050565b600081519050919050565b600081519050919050565b600081519050919050565b6000602082019050919050565b600082825260208201905092915050565b600082825260208201905092915050565b600081905092915050565b600082825260208201905092915050565b600081905092915050565b60006150dd826151f7565b91506150e8836151f7565b9250827fffffffffffffffffffffffffffffffffffffffffffffffffffffffffffffffff0382111561511d5761511c615320565b5b828201905092915050565b6000615133826151f7565b915061513e836151f7565b92508261514e5761514d61534f565b5b828204905092915050565b6000615164826151f7565b915061516f836151f7565b92508282101561518257615181615320565b5b828203905092915050565b6000615198826151d7565b9050919050565b60008115159050919050565b60007fffffffff0000000000000000000000000000000000000000000000000000000082169050919050565b600073ffffffffffffffffffffffffffffffffffffffff82169050919050565b6000819050919050565b82818337600083830152505050565b60005b8381101561522e578082015181840152602081019050615213565b8381111561523d576000848401525b50505050565b6000600282049050600182168061525b57607f821691505b6020821081141561526f5761526e61537e565b5b50919050565b61527e826153dc565b810181811067ffffffffffffffff8211171561529d5761529c6153ad565b5b80604052505050565b60006152b1826151f7565b91507fffffffffffffffffffffffffffffffffffffffffffffffffffffffffffffffff8214156152e4576152e3615320565b5b600182019050919050565b60006152fa826151f7565b9150615305836151f7565b9250826153155761531461534f565b5b828206905092915050565b7f4e487b7100000000000000000000000000000000000000000000000000000000600052601160045260246000fd5b7f4e487b7100000000000000000000000000000000000000000000000000000000600052601260045260246000fd5b7f4e487b7100000000000000000000000000000000000000000000000000000000600052602260045260246000fd5b7f4e487b7100000000000000000000000000000000000000000000000000000000600052604160045260246000fd5b6000601f19601f8301169050919050565b7f4572726f723a2057726f6e672062617365555249000000000000000000000000600082015250565b7f57686974656c697374206973206e6f7420616374697665000000000000000000600082015250565b7f455243373231456e756d657261626c653a206f776e657220696e646578206f7560008201527f74206f6620626f756e6473000000000000000000000000000000000000000000602082015250565b7f4552433732313a207472616e7366657220746f206e6f6e20455243373231526560008201527f63656976657220696d706c656d656e7465720000000000000000000000000000602082015250565b7f4f776e61626c653a206e6577206f776e657220697320746865207a65726f206160008201527f6464726573730000000000000000000000000000000000000000000000000000602082015250565b7f4552433732313a207472616e736665722066726f6d20696e636f72726563742060008201527f6f776e6572000000000000000000000000000000000000000000000000000000602082015250565b7f4552433732313a20746f6b656e20616c7265616479206d696e74656400000000600082015250565b7f4552433732313a207472616e7366657220746f20746865207a65726f2061646460008201527f7265737300000000000000000000000000000000000000000000000000000000602082015250565b7f4552433732313a20617070726f766520746f2063616c6c657200000000000000600082015250565b7f596f7520617265206e6f7420696e2077686974656c6973740000000000000000600082015250565b7f4552433732313a206f70657261746f7220717565727920666f72206e6f6e657860008201527f697374656e7420746f6b656e0000000000000000000000000000000000000000602082015250565b7f4552433732313a20617070726f76652063616c6c6572206973206e6f74206f7760008201527f6e6572206e6f7220617070726f76656420666f7220616c6c0000000000000000602082015250565b7f4552433732313a2062616c616e636520717565727920666f7220746865207a6560008201527f726f206164647265737300000000000000000000000000000000000000000000602082015250565b7f4552433732313a206f776e657220717565727920666f72206e6f6e657869737460008201527f656e7420746f6b656e0000000000000000000000000000000000000000000000602082015250565b7f6d6178204e4654206c696d697420657863656564656400000000000000000000600082015250565b7f4d6178204e4654206c696d697420657863656564656400000000000000000000600082015250565b7f4552433732313a206d696e7420746f20746865207a65726f2061646472657373600082015250565b7f436f6e7472616374206973206e6f742061637469766500000000000000000000600082015250565b7f4552433732313a20617070726f76656420717565727920666f72206e6f6e657860008201527f697374656e7420746f6b656e0000000000000000000000000000000000000000602082015250565b7f4f776e61626c653a2063616c6c6572206973206e6f7420746865206f776e6572600082015250565b7f53656e646572206973206e6f742061646d696e00000000000000000000000000600082015250565b7f4552433732314d657461646174613a2055524920717565727920666f72206e6f60008201527f6e6578697374656e7420746f6b656e0000000000000000000000000000000000602082015250565b7f4552433732313a20617070726f76616c20746f2063757272656e74206f776e6560008201527f7200000000000000000000000000000000000000000000000000000000000000602082015250565b7f50726573616c6520697320736f6c64206f75742e000000000000000000000000600082015250565b50565b7f696e73756666696369656e742066756e64730000000000000000000000000000600082015250565b7f4552433732313a207472616e736665722063616c6c6572206973206e6f74206f60008201527f776e6572206e6f7220617070726f766564000000000000000000000000000000602082015250565b7f4d6178204e4654207065722077616c6c65742065786365656465640000000000600082015250565b7f74727920746f6e2073656e64206d6f7265204554480000000000000000000000600082015250565b7f455243373231456e756d657261626c653a20676c6f62616c20696e646578206f60008201527f7574206f6620626f756e64730000000000000000000000000000000000000000602082015250565b7f50757263686173652065786365656473206d617820616c6c6f77656400000000600082015250565b615adb8161518d565b8114615ae657600080fd5b50565b615af28161519f565b8114615afd57600080fd5b50565b615b09816151ab565b8114615b1457600080fd5b50565b615b20816151f7565b8114615b2b57600080fd5b5056fea2646970667358221220dff5229cd7a66ea0e6a22cd20c9eca983d8216e20be60478e3781a0122d49ff564736f6c63430008040033",
  "linkReferences": {},
  "deployedLinkReferences": {}
}